{
  "address": "0xbfFE7bC0A26FfE6f7882ABb6B7C4f299A5138E66",
  "abi": [
    {
      "inputs": [
        {
          "internalType": "address",
          "name": "router",
          "type": "address"
        },
        {
          "internalType": "string",
          "name": "javascript_",
          "type": "string"
        },
        {
          "internalType": "uint64",
          "name": "subscriptionId_",
          "type": "uint64"
        },
        {
          "internalType": "uint32",
          "name": "gasLimit_",
          "type": "uint32"
        },
        {
          "internalType": "bytes32",
          "name": "donId_",
          "type": "bytes32"
        }
      ],
      "stateMutability": "nonpayable",
      "type": "constructor"
    },
    {
      "inputs": [],
      "name": "EmptyArgs",
      "type": "error"
    },
    {
      "inputs": [],
      "name": "EmptySource",
      "type": "error"
    },
    {
      "inputs": [],
      "name": "NoInlineSecrets",
      "type": "error"
    },
    {
      "inputs": [],
      "name": "OnlyRouterCanFulfill",
      "type": "error"
    },
    {
      "inputs": [
        {
          "internalType": "bytes32",
          "name": "requestId",
          "type": "bytes32"
        }
      ],
      "name": "UnexpectedRequestID",
      "type": "error"
    },
    {
      "anonymous": false,
      "inputs": [
        {
          "indexed": false,
          "internalType": "string",
          "name": "javascript",
          "type": "string"
        }
      ],
      "name": "Javascript",
      "type": "event"
    },
    {
      "anonymous": false,
      "inputs": [
        {
          "indexed": true,
          "internalType": "address",
          "name": "from",
          "type": "address"
        },
        {
          "indexed": true,
          "internalType": "address",
          "name": "to",
          "type": "address"
        }
      ],
      "name": "OwnershipTransferRequested",
      "type": "event"
    },
    {
      "anonymous": false,
      "inputs": [
        {
          "indexed": true,
          "internalType": "address",
          "name": "from",
          "type": "address"
        },
        {
          "indexed": true,
          "internalType": "address",
          "name": "to",
          "type": "address"
        }
      ],
      "name": "OwnershipTransferred",
      "type": "event"
    },
    {
      "anonymous": false,
      "inputs": [
        {
          "indexed": true,
          "internalType": "bytes32",
          "name": "requestId",
          "type": "bytes32"
        },
        {
          "indexed": false,
          "internalType": "string",
          "name": "request",
          "type": "string"
        }
      ],
      "name": "Request",
      "type": "event"
    },
    {
      "anonymous": false,
      "inputs": [
        {
          "indexed": true,
          "internalType": "bytes32",
          "name": "id",
          "type": "bytes32"
        }
      ],
      "name": "RequestFulfilled",
      "type": "event"
    },
    {
      "anonymous": false,
      "inputs": [
        {
          "indexed": true,
          "internalType": "bytes32",
          "name": "id",
          "type": "bytes32"
        }
      ],
      "name": "RequestSent",
      "type": "event"
    },
    {
      "anonymous": false,
      "inputs": [
        {
          "indexed": true,
          "internalType": "bytes32",
          "name": "requestId",
          "type": "bytes32"
        },
        {
          "indexed": false,
          "internalType": "string",
          "name": "response",
          "type": "string"
        },
        {
          "indexed": false,
          "internalType": "string",
          "name": "err",
          "type": "string"
        }
      ],
      "name": "Response",
      "type": "event"
    },
    {
      "inputs": [],
      "name": "acceptOwnership",
      "outputs": [],
      "stateMutability": "nonpayable",
      "type": "function"
    },
    {
      "inputs": [],
      "name": "donHostedSecretsVersion",
      "outputs": [
        {
          "internalType": "uint64",
          "name": "",
          "type": "uint64"
        }
      ],
      "stateMutability": "view",
      "type": "function"
    },
    {
      "inputs": [],
      "name": "donId",
      "outputs": [
        {
          "internalType": "bytes32",
          "name": "",
          "type": "bytes32"
        }
      ],
      "stateMutability": "view",
      "type": "function"
    },
    {
      "inputs": [],
      "name": "gasLimit",
      "outputs": [
        {
          "internalType": "uint32",
          "name": "",
          "type": "uint32"
        }
      ],
      "stateMutability": "view",
      "type": "function"
    },
    {
      "inputs": [
        {
          "internalType": "bytes32",
          "name": "requestId",
          "type": "bytes32"
        },
        {
          "internalType": "bytes",
          "name": "response",
          "type": "bytes"
        },
        {
          "internalType": "bytes",
          "name": "err",
          "type": "bytes"
        }
      ],
      "name": "handleOracleFulfillment",
      "outputs": [],
      "stateMutability": "nonpayable",
      "type": "function"
    },
    {
      "inputs": [],
      "name": "javascript",
      "outputs": [
        {
          "internalType": "string",
          "name": "",
          "type": "string"
        }
      ],
      "stateMutability": "view",
      "type": "function"
    },
    {
      "inputs": [],
      "name": "lastError",
      "outputs": [
        {
          "internalType": "string",
          "name": "",
          "type": "string"
        }
      ],
      "stateMutability": "view",
      "type": "function"
    },
    {
      "inputs": [],
      "name": "lastRequestId",
      "outputs": [
        {
          "internalType": "bytes32",
          "name": "",
          "type": "bytes32"
        }
      ],
      "stateMutability": "view",
      "type": "function"
    },
    {
      "inputs": [],
      "name": "lastResponse",
      "outputs": [
        {
          "internalType": "string",
          "name": "",
          "type": "string"
        }
      ],
      "stateMutability": "view",
      "type": "function"
    },
    {
      "inputs": [],
      "name": "lastUserPrompt",
      "outputs": [
        {
          "internalType": "string",
          "name": "",
          "type": "string"
        }
      ],
      "stateMutability": "view",
      "type": "function"
    },
    {
      "inputs": [],
      "name": "owner",
      "outputs": [
        {
          "internalType": "address",
          "name": "",
          "type": "address"
        }
      ],
      "stateMutability": "view",
      "type": "function"
    },
    {
      "inputs": [
        {
          "internalType": "string",
          "name": "userPrompt",
          "type": "string"
        }
      ],
      "name": "sendRequest",
      "outputs": [
        {
          "internalType": "bytes32",
          "name": "",
          "type": "bytes32"
        }
      ],
      "stateMutability": "payable",
      "type": "function"
    },
    {
      "inputs": [
        {
          "internalType": "uint64",
          "name": "donHostedSecretsVersion_",
          "type": "uint64"
        }
      ],
      "name": "setDonHostedSecretsVersion",
      "outputs": [],
      "stateMutability": "nonpayable",
      "type": "function"
    },
    {
      "inputs": [
        {
          "internalType": "bytes32",
          "name": "donId_",
          "type": "bytes32"
        }
      ],
      "name": "setDonID",
      "outputs": [],
      "stateMutability": "nonpayable",
      "type": "function"
    },
    {
      "inputs": [
        {
          "internalType": "uint32",
          "name": "gasLimit_",
          "type": "uint32"
        }
      ],
      "name": "setGasLimit",
      "outputs": [],
      "stateMutability": "nonpayable",
      "type": "function"
    },
    {
      "inputs": [
        {
          "internalType": "string",
          "name": "javascript_",
          "type": "string"
        }
      ],
      "name": "setJavascript",
      "outputs": [],
      "stateMutability": "nonpayable",
      "type": "function"
    },
    {
      "inputs": [
        {
          "internalType": "uint64",
          "name": "subscriptionId_",
          "type": "uint64"
        }
      ],
      "name": "setSubscriptionId",
      "outputs": [],
      "stateMutability": "nonpayable",
      "type": "function"
    },
    {
      "inputs": [],
      "name": "subscriptionId",
      "outputs": [
        {
          "internalType": "uint64",
          "name": "",
          "type": "uint64"
        }
      ],
      "stateMutability": "view",
      "type": "function"
    },
    {
      "inputs": [
        {
          "internalType": "address",
          "name": "to",
          "type": "address"
        }
      ],
      "name": "transferOwnership",
      "outputs": [],
      "stateMutability": "nonpayable",
      "type": "function"
    },
    {
      "inputs": [
        {
          "internalType": "address",
          "name": "receiver",
          "type": "address"
        }
      ],
      "name": "withdraw",
      "outputs": [],
      "stateMutability": "nonpayable",
      "type": "function"
    }
  ],
  "transactionHash": "0xbfb8ac3293b3f0057ced603e976f342fd42d92cc3310e714e40193283d5f6c41",
  "args": [
    "0xf9B8fc078197181C841c296C876945aaa425B278",
    "if (!secrets.openaiKey) throw Error(\"Need OPENAI_KEY environment variable\");\n\nconst data = {\n  model: \"gpt-4o-mini\",\n  messages: [{ role: \"user\", content: args[0] }],\n};\n\nconst openAiResponse = await Functions.makeHttpRequest({\n  url: \"https://api.openai.com/v1/chat/completions\",\n  method: \"POST\",\n  headers: {\n    \"Content-Type\": `application/json`,\n    Authorization: `Bearer ${secrets.openaiKey}`,\n  },\n  data: data,\n});\n\nconst result = openAiResponse.error\n  ? `ERROR ${openAiResponse.message}`\n  : openAiResponse.data.choices[0].message.content;\nconsole.log(\"result:\", result);\n\nreturn Functions.encodeString(result);\n",
    159,
    300000,
    "0x66756e2d626173652d7365706f6c69612d310000000000000000000000000000"
  ],
  "numDeployments": 1,
  "solcInputHash": "afe7029826ec5b78638ed3449e88481f",
  "bytecode": "0x60a06040523480156200001157600080fd5b506040516200204c3803806200204c833981016040819052620000349162000217565b6001600160a01b0385166080523380600081620000985760405162461bcd60e51b815260206004820152601860248201527f43616e6e6f7420736574206f776e657220746f207a65726f000000000000000060448201526064015b60405180910390fd5b600080546001600160a01b0319166001600160a01b0384811691909117909155811615620000cb57620000cb8162000124565b5060029150620000de90508582620003cb565b506007805463ffffffff90931668010000000000000000026001600160601b03199093166001600160401b03909416939093179190911790915560085550620004979050565b336001600160a01b038216036200017e5760405162461bcd60e51b815260206004820152601760248201527f43616e6e6f74207472616e7366657220746f2073656c6600000000000000000060448201526064016200008f565b600180546001600160a01b0319166001600160a01b0383811691821790925560008054604051929316917fed8889f560326eb138920d842192f0eb3dd22b4f139c87a2c57538e05bae12789190a350565b634e487b7160e01b600052604160045260246000fd5b80516001600160401b0381168114620001fd57600080fd5b919050565b805163ffffffff81168114620001fd57600080fd5b600080600080600060a086880312156200023057600080fd5b85516001600160a01b03811681146200024857600080fd5b602087810151919650906001600160401b03808211156200026857600080fd5b818901915089601f8301126200027d57600080fd5b815181811115620002925762000292620001cf565b604051601f8201601f19908116603f01168101908382118183101715620002bd57620002bd620001cf565b816040528281528c86848701011115620002d657600080fd5b600093505b82841015620002fa5784840186015181850187015292850192620002db565b60008684830101528099505050505050506200031960408701620001e5565b9250620003296060870162000202565b9150608086015190509295509295909350565b600181811c908216806200035157607f821691505b6020821081036200037257634e487b7160e01b600052602260045260246000fd5b50919050565b601f821115620003c657600081815260208120601f850160051c81016020861015620003a15750805b601f850160051c820191505b81811015620003c257828155600101620003ad565b5050505b505050565b81516001600160401b03811115620003e757620003e7620001cf565b620003ff81620003f884546200033c565b8462000378565b602080601f8311600181146200043757600084156200041e5750858301515b600019600386901b1c1916600185901b178555620003c2565b600085815260208120601f198616915b82811015620004685788860151825594840194600190910190840162000447565b5085821015620004875787850151600019600388901b60f8161c191681555b5050505050600190811b01905550565b608051611b92620004ba600039600081816103b20152610e630152611b926000f3fe60806040526004361061011f5760003560e01c80638dbe7b9d116100a0578063ea7b4f7711610064578063ea7b4f77146102f8578063f2fde38b14610318578063f68016b714610338578063fc2a88c314610371578063fdb742d91461038757600080fd5b80638dbe7b9d1461026c5780639f2f83c014610290578063b2adc1d9146102a5578063cd6b5fef146102b8578063cfeaa3ec146102d857600080fd5b806362747e42116100e757806362747e42146101e557806363e47df8146101fa5780636806c8621461020f57806379ba50971461022f5780638da5cb5b1461024457600080fd5b806309c1ba2e146101245780630ca761751461016157806329f0de3f1461018357806351cff8d9146101a557806352d84c62146101c5575b600080fd5b34801561013057600080fd5b50600754610144906001600160401b031681565b6040516001600160401b0390911681526020015b60405180910390f35b34801561016d57600080fd5b5061018161017c3660046115b8565b6103a7565b005b34801561018f57600080fd5b5061019861042b565b604051610158919061166a565b3480156101b157600080fd5b506101816101c036600461167d565b6104b9565b3480156101d157600080fd5b506101816101e03660046116a6565b61055f565b3480156101f157600080fd5b50610198610592565b34801561020657600080fd5b5061019861059f565b34801561021b57600080fd5b5061018161022a3660046116cc565b6105ac565b34801561023b57600080fd5b506101816105fb565b34801561025057600080fd5b506000546040516001600160a01b039091168152602001610158565b34801561027857600080fd5b5061028260085481565b604051908152602001610158565b34801561029c57600080fd5b506101986106a5565b6102826102b33660046116cc565b6106b2565b3480156102c457600080fd5b50600954610144906001600160401b031681565b3480156102e457600080fd5b506101816102f336600461171c565b61096d565b34801561030457600080fd5b50610181610313366004611735565b61097a565b34801561032457600080fd5b5061018161033336600461167d565b6109a5565b34801561034457600080fd5b5060075461035c90600160401b900463ffffffff1681565b60405163ffffffff9091168152602001610158565b34801561037d57600080fd5b5061028260035481565b34801561039357600080fd5b506101816103a2366004611735565b6109b9565b336001600160a01b037f000000000000000000000000000000000000000000000000000000000000000016146103f05760405163c6829f8360e01b815260040160405180910390fd5b6103fb8383836109e4565b60405183907f85e1543bf2f84fe80c6badbce3648c8539ad1df4d2b3d822938ca0538be727e690600090a2505050565b600580546104389061175e565b80601f01602080910402602001604051908101604052809291908181526020018280546104649061175e565b80156104b15780601f10610486576101008083540402835291602001916104b1565b820191906000526020600020905b81548152906001019060200180831161049457829003601f168201915b505050505081565b6104c1610a64565b6000816001600160a01b03164760405160006040518083038185875af1925050503d806000811461050e576040519150601f19603f3d011682016040523d82523d6000602084013e610513565b606091505b505090508061055b5760405162461bcd60e51b815260206004820152600f60248201526e15da5d1a191c985dc819985a5b1959608a1b60448201526064015b60405180910390fd5b5050565b610567610a64565b6007805463ffffffff909216600160401b026bffffffff000000000000000019909216919091179055565b600480546104389061175e565b600280546104389061175e565b6105b4610a64565b60026105c082826117e6565b507f19b57dbb939f96aaca7e28083ba30fa22465fd4c84b94a7c7d7b689137be6877816040516105f0919061166a565b60405180910390a150565b6001546001600160a01b0316331461064e5760405162461bcd60e51b815260206004820152601660248201527526bab9ba10313290383937b837b9b2b21037bbb732b960511b6044820152606401610552565b60008054336001600160a01b0319808316821784556001805490911690556040516001600160a01b0390921692909183917f8be0079c531659141344cd1fd0a4f28419497f9722a3daafe3b4186f6b6457e091a350565b600680546104389061175e565b60003466071afd498d00001461070a5760405162461bcd60e51b815260206004820152601c60248201527f5265717565737420726571756972657320302e303032206574686572000000006044820152606401610552565b6009546001600160401b03166107595760405162461bcd60e51b815260206004820152601460248201527314d958dc995d1cc81b9bdd081d5c1b1bd859195960621b6044820152606401610552565b600661076583826117e6565b5060006003819055604080516020810190915290815260049061078890826117e6565b506040805160208101909152600081526005906107a590826117e6565b506107e76040805160e0810190915280600081526020016000815260200160008152602001606081526020016060815260200160608152602001606081525090565b610884600280546107f79061175e565b80601f01602080910402602001604051908101604052809291908181526020018280546108239061175e565b80156108705780601f1061084557610100808354040283529160200191610870565b820191906000526020600020905b81548152906001019060200180831161085357829003601f168201915b505050505082610ab990919063ffffffff16565b604080516001808252818301909252600091816020015b606081526020019060019003908161089b57905050905083816000815181106108c6576108c66118a5565b60209081029190910101526108db8282610ac6565b6009546108f59083906000906001600160401b0316610af0565b61092561090183610b86565b6007546008546001600160401b03821691600160401b900463ffffffff1690610e5e565b60038190556040517f58c4931f429cb18fea0238d66bdcec44991828642becdaed95b821ac2e59191d9061095a90879061166a565b60405180910390a2505060035492915050565b610975610a64565b600855565b610982610a64565b6007805467ffffffffffffffff19166001600160401b0392909216919091179055565b6109ad610a64565b6109b681610f30565b50565b6109c1610a64565b6009805467ffffffffffffffff19166001600160401b0392909216919091179055565b8260035414610a095760405163d068bf5b60e01b815260048101849052602401610552565b6004610a1583826117e6565b506005610a2282826117e6565b50827f54e825fb4d54663279ee30ed85028f773101cc86a17c9fbeecd0e0d1f771381160046005604051610a57929190611938565b60405180910390a2505050565b6000546001600160a01b03163314610ab75760405162461bcd60e51b815260206004820152601660248201527527b7363c9031b0b63630b1363290313c9037bbb732b960511b6044820152606401610552565b565b61055b8260008084610fd9565b8051600003610ae85760405163fe936cb760e01b815260040160405180910390fd5b60a090910152565b6000610afd610100611057565b9050610b30604051806040016040528060068152602001651cdb1bdd125160d21b8152508261107890919063ffffffff16565b610b3d8160ff8516611096565b6040805180820190915260078152663b32b939b4b7b760c91b6020820152610b66908290611078565b610b708183611096565b6002602085015251516080909301929092525050565b60606000610b95610100611057565b9050610bce6040518060400160405280600c81526020016b31b7b232a637b1b0ba34b7b760a11b8152508261107890919063ffffffff16565b8251610bec906002811115610be557610be5611966565b82906110a2565b6040805180820190915260088152676c616e677561676560c01b6020820152610c16908290611078565b6040830151610c2d908015610be557610be5611966565b604080518082019091526006815265736f7572636560d01b6020820152610c55908290611078565b6060830151610c65908290611078565b60a08301515115610cf9576040805180820190915260048152636172677360e01b6020820152610c96908290611078565b610c9f816110db565b60005b8360a0015151811015610cef57610cdf8460a001518281518110610cc857610cc86118a5565b60200260200101518361107890919063ffffffff16565b610ce881611992565b9050610ca2565b50610cf9816110ff565b60808301515115610dbd57600083602001516002811115610d1c57610d1c611966565b03610d3a5760405163a80d31f760e01b815260040160405180910390fd5b60408051808201909152600f81526e39b2b1b932ba39a637b1b0ba34b7b760891b6020820152610d6b908290611078565b610d8483602001516002811115610be557610be5611966565b6040805180820190915260078152667365637265747360c81b6020820152610dad908290611078565b6080830151610dbd90829061111d565b60c08301515115610e565760408051808201909152600981526862797465734172677360b81b6020820152610df3908290611078565b610dfc816110db565b60005b8360c0015151811015610e4c57610e3c8460c001518281518110610e2557610e256118a5565b60200260200101518361111d90919063ffffffff16565b610e4581611992565b9050610dff565b50610e56816110ff565b515192915050565b6000807f00000000000000000000000000000000000000000000000000000000000000006001600160a01b031663461d27628688600188886040518663ffffffff1660e01b8152600401610eb69594939291906119ab565b6020604051808303816000875af1158015610ed5573d6000803e3d6000fd5b505050506040513d601f19601f82011682018060405250810190610ef991906119f4565b60405190915081907f1131472297a800fee664d1d89cfa8f7676ff07189ecc53f80bbb5f4969099db890600090a295945050505050565b336001600160a01b03821603610f885760405162461bcd60e51b815260206004820152601760248201527f43616e6e6f74207472616e7366657220746f2073656c660000000000000000006044820152606401610552565b600180546001600160a01b0319166001600160a01b0383811691821790925560008054604051929316917fed8889f560326eb138920d842192f0eb3dd22b4f139c87a2c57538e05bae12789190a350565b8051600003610ffb576040516322ce3edd60e01b815260040160405180910390fd5b8383600281111561100e5761100e611966565b9081600281111561102157611021611966565b9052506040840182801561103757611037611966565b9081801561104757611047611966565b9052506060909301929092525050565b61105f6114d8565b805161106b908361112a565b5060006020820152919050565b61108582600383516111a4565b815161109190826112c3565b505050565b61055b826000836111a4565b81516110af9060c26112eb565b5061055b82826040516020016110c791815260200190565b60405160208183030381529060405261111d565b6110e6816004611354565b6001816020018181516110f99190611a0d565b90525050565b61110a816007611354565b6001816020018181516110f99190611a20565b61108582600283516111a4565b60408051808201909152606081526000602082015261114a602083611a33565b156111725761115a602083611a33565b611165906020611a20565b61116f9083611a0d565b91505b60208084018390526040518085526000815290818401018181101561119657600080fd5b604052508290505b92915050565b6017816001600160401b0316116111d05782516111ca9060e0600585901b1683176112eb565b50505050565b60ff816001600160401b0316116112105782516111f8906018611fe0600586901b16176112eb565b5082516111ca906001600160401b038316600161136b565b61ffff816001600160401b031611611251578251611239906019611fe0600586901b16176112eb565b5082516111ca906001600160401b038316600261136b565b63ffffffff816001600160401b03161161129457825161127c90601a611fe0600586901b16176112eb565b5082516111ca906001600160401b038316600461136b565b82516112ab90601b611fe0600586901b16176112eb565b5082516111ca906001600160401b038316600861136b565b6040805180820190915260608152600060208201526112e4838384516113f0565b9392505050565b6040805180820190915260608152600060208201528251516000611310826001611a0d565b905084602001518210611331576113318561132c836002611a55565b6114c1565b845160208382010185815350805182111561134a578181525b5093949350505050565b815161109190601f611fe0600585901b16176112eb565b604080518082019091526060815260006020820152835151600061138f8285611a0d565b905085602001518111156113ac576113ac8661132c836002611a55565b600060016113bc86610100611b50565b6113c69190611a20565b905086518281018783198251161781525080518311156113e4578281525b50959695505050505050565b604080518082019091526060815260006020820152825182111561141357600080fd5b83515160006114228483611a0d565b9050856020015181111561143f5761143f8661132c836002611a55565b855180518382016020019160009180851115611459578482525b505050602086015b602086106114995780518252611478602083611a0d565b9150611485602082611a0d565b9050611492602087611a20565b9550611461565b51815160001960208890036101000a0190811690199190911617905250849150509392505050565b81516114cd838361112a565b506111ca83826112c3565b6040518060400160405280611500604051806040016040528060608152602001600081525090565b8152602001600081525090565b634e487b7160e01b600052604160045260246000fd5b60006001600160401b038084111561153d5761153d61150d565b604051601f8501601f19908116603f011681019082821181831017156115655761156561150d565b8160405280935085815286868601111561157e57600080fd5b858560208301376000602087830101525050509392505050565b600082601f8301126115a957600080fd5b6112e483833560208501611523565b6000806000606084860312156115cd57600080fd5b8335925060208401356001600160401b03808211156115eb57600080fd5b6115f787838801611598565b9350604086013591508082111561160d57600080fd5b5061161a86828701611598565b9150509250925092565b6000815180845260005b8181101561164a5760208185018101518683018201520161162e565b506000602082860101526020601f19601f83011685010191505092915050565b6020815260006112e46020830184611624565b60006020828403121561168f57600080fd5b81356001600160a01b03811681146112e457600080fd5b6000602082840312156116b857600080fd5b813563ffffffff811681146112e457600080fd5b6000602082840312156116de57600080fd5b81356001600160401b038111156116f457600080fd5b8201601f8101841361170557600080fd5b61171484823560208401611523565b949350505050565b60006020828403121561172e57600080fd5b5035919050565b60006020828403121561174757600080fd5b81356001600160401b03811681146112e457600080fd5b600181811c9082168061177257607f821691505b60208210810361179257634e487b7160e01b600052602260045260246000fd5b50919050565b601f82111561109157600081815260208120601f850160051c810160208610156117bf5750805b601f850160051c820191505b818110156117de578281556001016117cb565b505050505050565b81516001600160401b038111156117ff576117ff61150d565b6118138161180d845461175e565b84611798565b602080601f83116001811461184857600084156118305750858301515b600019600386901b1c1916600185901b1785556117de565b600085815260208120601f198616915b8281101561187757888601518255948401946001909101908401611858565b50858210156118955787850151600019600388901b60f8161c191681555b5050505050600190811b01905550565b634e487b7160e01b600052603260045260246000fd5b600081546118c88161175e565b8085526020600183811680156118e557600181146118ff5761192d565b60ff1985168884015283151560051b88018301955061192d565b866000528260002060005b858110156119255781548a820186015290830190840161190a565b890184019650505b505050505092915050565b60408152600061194b60408301856118bb565b828103602084015261195d81856118bb565b95945050505050565b634e487b7160e01b600052602160045260246000fd5b634e487b7160e01b600052601160045260246000fd5b6000600182016119a4576119a461197c565b5060010190565b6001600160401b038616815260a0602082015260006119cd60a0830187611624565b61ffff9590951660408301525063ffffffff92909216606083015260809091015292915050565b600060208284031215611a0657600080fd5b5051919050565b8082018082111561119e5761119e61197c565b8181038181111561119e5761119e61197c565b600082611a5057634e487b7160e01b600052601260045260246000fd5b500690565b808202811582820484141761119e5761119e61197c565b600181815b80851115611aa7578160001904821115611a8d57611a8d61197c565b80851615611a9a57918102915b93841c9390800290611a71565b509250929050565b600082611abe5750600161119e565b81611acb5750600061119e565b8160018114611ae15760028114611aeb57611b07565b600191505061119e565b60ff841115611afc57611afc61197c565b50506001821b61119e565b5060208310610133831016604e8410600b8410161715611b2a575081810a61119e565b611b348383611a6c565b8060001904821115611b4857611b4861197c565b029392505050565b60006112e48383611aaf56fea264697066735822122089ad2634e1e0906a87a1e8c80bb01777ea3d636100b2bf6f2dabcaf1164d54fa64736f6c63430008130033",
  "devdoc": {
    "kind": "dev",
    "methods": {
      "handleOracleFulfillment(bytes32,bytes,bytes)": {
        "details": "Either response or error parameter will be set, but never both.",
        "params": {
          "err": "Aggregated error either from the request's source code or from the execution pipeline.",
          "requestId": "The requestId returned by FunctionsClient.sendRequest().",
          "response": "Aggregated response from the request's source code."
        }
      }
    },
    "version": 1
  },
  "userdoc": {
    "kind": "user",
    "methods": {
      "acceptOwnership()": {
        "notice": "Allows an ownership transfer to be completed by the recipient."
      },
      "handleOracleFulfillment(bytes32,bytes,bytes)": {
        "notice": "Chainlink Functions response handler called by the Functions Router during fullilment from the designated transmitter node in an OCR round."
      },
      "owner()": {
        "notice": "Get the current owner"
      },
      "transferOwnership(address)": {
        "notice": "Allows an owner to begin transferring ownership to a new address."
      }
    },
    "version": 1
  },
  "storageLayout": {
    "storage": [
      {
        "astId": 816,
        "contract": "contracts/OnchainAI.sol:OnChainAI",
        "label": "s_owner",
        "offset": 0,
        "slot": "0",
        "type": "t_address"
      },
      {
        "astId": 818,
        "contract": "contracts/OnchainAI.sol:OnChainAI",
        "label": "s_pendingOwner",
        "offset": 0,
        "slot": "1",
        "type": "t_address"
      },
      {
        "astId": 2284,
        "contract": "contracts/OnchainAI.sol:OnChainAI",
        "label": "javascript",
        "offset": 0,
        "slot": "2",
        "type": "t_string_storage"
      },
      {
        "astId": 2286,
        "contract": "contracts/OnchainAI.sol:OnChainAI",
        "label": "lastRequestId",
        "offset": 0,
        "slot": "3",
        "type": "t_bytes32"
      },
      {
        "astId": 2288,
        "contract": "contracts/OnchainAI.sol:OnChainAI",
        "label": "lastResponse",
        "offset": 0,
        "slot": "4",
        "type": "t_string_storage"
      },
      {
        "astId": 2290,
        "contract": "contracts/OnchainAI.sol:OnChainAI",
        "label": "lastError",
        "offset": 0,
        "slot": "5",
        "type": "t_string_storage"
      },
      {
        "astId": 2292,
        "contract": "contracts/OnchainAI.sol:OnChainAI",
        "label": "lastUserPrompt",
        "offset": 0,
        "slot": "6",
        "type": "t_string_storage"
      },
      {
        "astId": 2294,
        "contract": "contracts/OnchainAI.sol:OnChainAI",
        "label": "subscriptionId",
        "offset": 0,
        "slot": "7",
        "type": "t_uint64"
      },
      {
        "astId": 2296,
        "contract": "contracts/OnchainAI.sol:OnChainAI",
        "label": "gasLimit",
        "offset": 8,
        "slot": "7",
        "type": "t_uint32"
      },
      {
        "astId": 2298,
        "contract": "contracts/OnchainAI.sol:OnChainAI",
        "label": "donId",
        "offset": 0,
        "slot": "8",
        "type": "t_bytes32"
      },
      {
        "astId": 2300,
        "contract": "contracts/OnchainAI.sol:OnChainAI",
        "label": "donHostedSecretsVersion",
        "offset": 0,
        "slot": "9",
        "type": "t_uint64"
      }
    ],
    "types": {
      "t_address": {
        "encoding": "inplace",
        "label": "address",
        "numberOfBytes": "20"
      },
      "t_bytes32": {
        "encoding": "inplace",
        "label": "bytes32",
        "numberOfBytes": "32"
      },
      "t_string_storage": {
        "encoding": "bytes",
        "label": "string",
        "numberOfBytes": "32"
      },
      "t_uint32": {
        "encoding": "inplace",
        "label": "uint32",
        "numberOfBytes": "4"
      },
      "t_uint64": {
        "encoding": "inplace",
        "label": "uint64",
        "numberOfBytes": "8"
      }
    }
  }
}