{
  "address": "0x572EF13A2955ba11a99dAcfa5eA69461d22e1D7b",
  "abi": [
    {
      "inputs": [
        {
          "internalType": "address",
          "name": "basescanCheckAddress",
          "type": "address"
        }
      ],
      "stateMutability": "nonpayable",
      "type": "constructor"
    },
    {
      "inputs": [],
      "name": "InsufficientPayment",
      "type": "error"
    },
    {
      "inputs": [],
      "name": "VerificationNotChecked",
      "type": "error"
    },
    {
      "anonymous": false,
      "inputs": [
        {
          "indexed": true,
          "internalType": "address",
          "name": "owner",
          "type": "address"
        },
        {
          "indexed": true,
          "internalType": "address",
          "name": "spender",
          "type": "address"
        },
        {
          "indexed": false,
          "internalType": "uint256",
          "name": "value",
          "type": "uint256"
        }
      ],
      "name": "Approval",
      "type": "event"
    },
    {
      "anonymous": false,
      "inputs": [
        {
          "indexed": false,
          "internalType": "address",
          "name": "contractAddress",
          "type": "address"
        }
      ],
      "name": "CheckRequestSent",
      "type": "event"
    },
    {
      "anonymous": false,
      "inputs": [
        {
          "indexed": true,
          "internalType": "address",
          "name": "previousOwner",
          "type": "address"
        },
        {
          "indexed": true,
          "internalType": "address",
          "name": "newOwner",
          "type": "address"
        }
      ],
      "name": "OwnershipTransferred",
      "type": "event"
    },
    {
      "anonymous": false,
      "inputs": [
        {
          "indexed": true,
          "internalType": "address",
          "name": "from",
          "type": "address"
        },
        {
          "indexed": true,
          "internalType": "address",
          "name": "to",
          "type": "address"
        },
        {
          "indexed": false,
          "internalType": "uint256",
          "name": "value",
          "type": "uint256"
        }
      ],
      "name": "Transfer",
      "type": "event"
    },
    {
      "inputs": [
        {
          "internalType": "address",
          "name": "owner",
          "type": "address"
        },
        {
          "internalType": "address",
          "name": "spender",
          "type": "address"
        }
      ],
      "name": "allowance",
      "outputs": [
        {
          "internalType": "uint256",
          "name": "",
          "type": "uint256"
        }
      ],
      "stateMutability": "view",
      "type": "function"
    },
    {
      "inputs": [
        {
          "internalType": "address",
          "name": "spender",
          "type": "address"
        },
        {
          "internalType": "uint256",
          "name": "amount",
          "type": "uint256"
        }
      ],
      "name": "approve",
      "outputs": [
        {
          "internalType": "bool",
          "name": "",
          "type": "bool"
        }
      ],
      "stateMutability": "nonpayable",
      "type": "function"
    },
    {
      "inputs": [
        {
          "internalType": "address",
          "name": "account",
          "type": "address"
        }
      ],
      "name": "balanceOf",
      "outputs": [
        {
          "internalType": "uint256",
          "name": "",
          "type": "uint256"
        }
      ],
      "stateMutability": "view",
      "type": "function"
    },
    {
      "inputs": [
        {
          "internalType": "uint256",
          "name": "amount",
          "type": "uint256"
        }
      ],
      "name": "burn",
      "outputs": [],
      "stateMutability": "nonpayable",
      "type": "function"
    },
    {
      "inputs": [
        {
          "internalType": "address",
          "name": "account",
          "type": "address"
        },
        {
          "internalType": "uint256",
          "name": "amount",
          "type": "uint256"
        }
      ],
      "name": "burnFrom",
      "outputs": [],
      "stateMutability": "nonpayable",
      "type": "function"
    },
    {
      "inputs": [
        {
          "internalType": "address",
          "name": "contractAddress",
          "type": "address"
        }
      ],
      "name": "checkVerification",
      "outputs": [],
      "stateMutability": "payable",
      "type": "function"
    },
    {
      "inputs": [],
      "name": "decimals",
      "outputs": [
        {
          "internalType": "uint8",
          "name": "",
          "type": "uint8"
        }
      ],
      "stateMutability": "view",
      "type": "function"
    },
    {
      "inputs": [
        {
          "internalType": "address",
          "name": "spender",
          "type": "address"
        },
        {
          "internalType": "uint256",
          "name": "subtractedValue",
          "type": "uint256"
        }
      ],
      "name": "decreaseAllowance",
      "outputs": [
        {
          "internalType": "bool",
          "name": "",
          "type": "bool"
        }
      ],
      "stateMutability": "nonpayable",
      "type": "function"
    },
    {
      "inputs": [
        {
          "internalType": "address",
          "name": "spender",
          "type": "address"
        },
        {
          "internalType": "uint256",
          "name": "addedValue",
          "type": "uint256"
        }
      ],
      "name": "increaseAllowance",
      "outputs": [
        {
          "internalType": "bool",
          "name": "",
          "type": "bool"
        }
      ],
      "stateMutability": "nonpayable",
      "type": "function"
    },
    {
      "inputs": [
        {
          "internalType": "address",
          "name": "",
          "type": "address"
        }
      ],
      "name": "isContractChecked",
      "outputs": [
        {
          "internalType": "bool",
          "name": "",
          "type": "bool"
        }
      ],
      "stateMutability": "view",
      "type": "function"
    },
    {
      "inputs": [],
      "name": "name",
      "outputs": [
        {
          "internalType": "string",
          "name": "",
          "type": "string"
        }
      ],
      "stateMutability": "view",
      "type": "function"
    },
    {
      "inputs": [],
      "name": "owner",
      "outputs": [
        {
          "internalType": "address",
          "name": "",
          "type": "address"
        }
      ],
      "stateMutability": "view",
      "type": "function"
    },
    {
      "inputs": [],
      "name": "renounceOwnership",
      "outputs": [],
      "stateMutability": "nonpayable",
      "type": "function"
    },
    {
      "inputs": [],
      "name": "symbol",
      "outputs": [
        {
          "internalType": "string",
          "name": "",
          "type": "string"
        }
      ],
      "stateMutability": "view",
      "type": "function"
    },
    {
      "inputs": [],
      "name": "totalSupply",
      "outputs": [
        {
          "internalType": "uint256",
          "name": "",
          "type": "uint256"
        }
      ],
      "stateMutability": "view",
      "type": "function"
    },
    {
      "inputs": [
        {
          "internalType": "address",
          "name": "to",
          "type": "address"
        },
        {
          "internalType": "uint256",
          "name": "amount",
          "type": "uint256"
        }
      ],
      "name": "transfer",
      "outputs": [
        {
          "internalType": "bool",
          "name": "",
          "type": "bool"
        }
      ],
      "stateMutability": "nonpayable",
      "type": "function"
    },
    {
      "inputs": [
        {
          "internalType": "address",
          "name": "from",
          "type": "address"
        },
        {
          "internalType": "address",
          "name": "to",
          "type": "address"
        },
        {
          "internalType": "uint256",
          "name": "amount",
          "type": "uint256"
        }
      ],
      "name": "transferFrom",
      "outputs": [
        {
          "internalType": "bool",
          "name": "",
          "type": "bool"
        }
      ],
      "stateMutability": "nonpayable",
      "type": "function"
    },
    {
      "inputs": [
        {
          "internalType": "address",
          "name": "newOwner",
          "type": "address"
        }
      ],
      "name": "transferOwnership",
      "outputs": [],
      "stateMutability": "nonpayable",
      "type": "function"
    },
    {
      "inputs": [
        {
          "internalType": "address",
          "name": "receiver",
          "type": "address"
        }
      ],
      "name": "withdraw",
      "outputs": [],
      "stateMutability": "nonpayable",
      "type": "function"
    },
    {
      "stateMutability": "payable",
      "type": "receive"
    }
  ],
  "transactionHash": "0x940a187b42d68f495ee6bf4de90a0fd51ad96fe9d779c4176f72e479f0e91bc9",
  "args": [
    "0x165cd00a304D16030009047831Bad9D723FE5b69"
  ],
  "numDeployments": 37,
  "solcInputHash": "b211c2eed8d9990afce660a08ccb4d77",
  "bytecode": "0x60806040523480156200001157600080fd5b5060405162002ca038038062002ca0833981810160405281019062000037919062000404565b6040518060400160405280601181526020017f5363616d2048756e74657220546f6b656e0000000000000000000000000000008152506040518060400160405280600381526020017f53485400000000000000000000000000000000000000000000000000000000008152508160039081620000b49190620006b0565b508060049081620000c69190620006b0565b505050620000e9620000dd6200015560201b60201c565b6200015d60201b60201c565b60016006819055506200010d3369d3c21bcecceda10000006200022360201b60201c565b80600760006101000a81548173ffffffffffffffffffffffffffffffffffffffff021916908373ffffffffffffffffffffffffffffffffffffffff16021790555050620008b2565b600033905090565b6000600560009054906101000a900473ffffffffffffffffffffffffffffffffffffffff16905081600560006101000a81548173ffffffffffffffffffffffffffffffffffffffff021916908373ffffffffffffffffffffffffffffffffffffffff1602179055508173ffffffffffffffffffffffffffffffffffffffff168173ffffffffffffffffffffffffffffffffffffffff167f8be0079c531659141344cd1fd0a4f28419497f9722a3daafe3b4186f6b6457e060405160405180910390a35050565b600073ffffffffffffffffffffffffffffffffffffffff168273ffffffffffffffffffffffffffffffffffffffff160362000295576040517f08c379a00000000000000000000000000000000000000000000000000000000081526004016200028c90620007f8565b60405180910390fd5b620002a9600083836200039060201b60201c565b8060026000828254620002bd919062000849565b92505081905550806000808473ffffffffffffffffffffffffffffffffffffffff1673ffffffffffffffffffffffffffffffffffffffff168152602001908152602001600020600082825401925050819055508173ffffffffffffffffffffffffffffffffffffffff16600073ffffffffffffffffffffffffffffffffffffffff167fddf252ad1be2c89b69c2b068fc378daa952ba7f163c4a11628f55a4df523b3ef8360405162000370919062000895565b60405180910390a36200038c600083836200039560201b60201c565b5050565b505050565b505050565b600080fd5b600073ffffffffffffffffffffffffffffffffffffffff82169050919050565b6000620003cc826200039f565b9050919050565b620003de81620003bf565b8114620003ea57600080fd5b50565b600081519050620003fe81620003d3565b92915050565b6000602082840312156200041d576200041c6200039a565b5b60006200042d84828501620003ed565b91505092915050565b600081519050919050565b7f4e487b7100000000000000000000000000000000000000000000000000000000600052604160045260246000fd5b7f4e487b7100000000000000000000000000000000000000000000000000000000600052602260045260246000fd5b60006002820490506001821680620004b857607f821691505b602082108103620004ce57620004cd62000470565b5b50919050565b60008190508160005260206000209050919050565b60006020601f8301049050919050565b600082821b905092915050565b600060088302620005387fffffffffffffffffffffffffffffffffffffffffffffffffffffffffffffffff82620004f9565b620005448683620004f9565b95508019841693508086168417925050509392505050565b6000819050919050565b6000819050919050565b6000620005916200058b62000585846200055c565b62000566565b6200055c565b9050919050565b6000819050919050565b620005ad8362000570565b620005c5620005bc8262000598565b84845462000506565b825550505050565b600090565b620005dc620005cd565b620005e9818484620005a2565b505050565b5b81811015620006115762000605600082620005d2565b600181019050620005ef565b5050565b601f82111562000660576200062a81620004d4565b6200063584620004e9565b8101602085101562000645578190505b6200065d6200065485620004e9565b830182620005ee565b50505b505050565b600082821c905092915050565b6000620006856000198460080262000665565b1980831691505092915050565b6000620006a0838362000672565b9150826002028217905092915050565b620006bb8262000436565b67ffffffffffffffff811115620006d757620006d662000441565b5b620006e382546200049f565b620006f082828562000615565b600060209050601f83116001811462000728576000841562000713578287015190505b6200071f858262000692565b8655506200078f565b601f1984166200073886620004d4565b60005b8281101562000762578489015182556001820191506020850194506020810190506200073b565b868310156200078257848901516200077e601f89168262000672565b8355505b6001600288020188555050505b505050505050565b600082825260208201905092915050565b7f45524332303a206d696e7420746f20746865207a65726f206164647265737300600082015250565b6000620007e0601f8362000797565b9150620007ed82620007a8565b602082019050919050565b600060208201905081810360008301526200081381620007d1565b9050919050565b7f4e487b7100000000000000000000000000000000000000000000000000000000600052601160045260246000fd5b600062000856826200055c565b915062000863836200055c565b92508282019050808211156200087e576200087d6200081a565b5b92915050565b6200088f816200055c565b82525050565b6000602082019050620008ac600083018462000884565b92915050565b6123de80620008c26000396000f3fe6080604052600436106101185760003560e01c806370a08231116100a0578063a457c2d711610064578063a457c2d7146103be578063a9059cbb146103fb578063baab979714610438578063dd62ed3e14610454578063f2fde38b146104915761011f565b806370a08231146102eb578063715018a61461032857806379cc67901461033f5780638da5cb5b1461036857806395d89b41146103935761011f565b8063313ce567116100e7578063313ce567146101f4578063395093511461021f57806342966c681461025c57806351cff8d914610285578063631da17f146102ae5761011f565b806306fdde0314610124578063095ea7b31461014f57806318160ddd1461018c57806323b872dd146101b75761011f565b3661011f57005b600080fd5b34801561013057600080fd5b506101396104ba565b60405161014691906117d9565b60405180910390f35b34801561015b57600080fd5b5061017660048036038101906101719190611894565b61054c565b60405161018391906118ef565b60405180910390f35b34801561019857600080fd5b506101a16105ed565b6040516101ae9190611919565b60405180910390f35b3480156101c357600080fd5b506101de60048036038101906101d99190611934565b6105f7565b6040516101eb91906118ef565b60405180910390f35b34801561020057600080fd5b50610209610626565b60405161021691906119a3565b60405180910390f35b34801561022b57600080fd5b5061024660048036038101906102419190611894565b61062f565b60405161025391906118ef565b60405180910390f35b34801561026857600080fd5b50610283600480360381019061027e91906119be565b610666565b005b34801561029157600080fd5b506102ac60048036038101906102a791906119eb565b61067a565b005b3480156102ba57600080fd5b506102d560048036038101906102d091906119eb565b610732565b6040516102e291906118ef565b60405180910390f35b3480156102f757600080fd5b50610312600480360381019061030d91906119eb565b610752565b60405161031f9190611919565b60405180910390f35b34801561033457600080fd5b5061033d61079a565b005b34801561034b57600080fd5b5061036660048036038101906103619190611894565b6107ae565b005b34801561037457600080fd5b5061037d6107ce565b60405161038a9190611a27565b60405180910390f35b34801561039f57600080fd5b506103a86107f8565b6040516103b591906117d9565b60405180910390f35b3480156103ca57600080fd5b506103e560048036038101906103e09190611894565b61088a565b6040516103f291906118ef565b60405180910390f35b34801561040757600080fd5b50610422600480360381019061041d9190611894565b610901565b60405161042f91906118ef565b60405180910390f35b610452600480360381019061044d91906119eb565b610924565b005b34801561046057600080fd5b5061047b60048036038101906104769190611a42565b610990565b6040516104889190611919565b60405180910390f35b34801561049d57600080fd5b506104b860048036038101906104b391906119eb565b610a17565b005b6060600380546104c990611ab1565b80601f01602080910402602001604051908101604052809291908181526020018280546104f590611ab1565b80156105425780601f1061051757610100808354040283529160200191610542565b820191906000526020600020905b81548152906001019060200180831161052557829003601f168201915b5050505050905090565b600080600860008573ffffffffffffffffffffffffffffffffffffffff1673ffffffffffffffffffffffffffffffffffffffff16815260200190815260200160002060006101000a81548160ff0219169083151502179055156105db576040517ff732171100000000000000000000000000000000000000000000000000000000815260040160405180910390fd5b6105e58383610a9a565b905092915050565b6000600254905090565b600080610602610abd565b905061060f858285610ac5565b61061a858585610b51565b60019150509392505050565b60006012905090565b60008061063a610abd565b905061065b81858561064c8589610990565b6106569190611b11565b610dc7565b600191505092915050565b610677610671610abd565b82610f90565b50565b61068261115d565b60008173ffffffffffffffffffffffffffffffffffffffff16476040516106a890611b76565b60006040518083038185875af1925050503d80600081146106e5576040519150601f19603f3d011682016040523d82523d6000602084013e6106ea565b606091505b505090508061072e576040517f08c379a000000000000000000000000000000000000000000000000000000000815260040161072590611bd7565b60405180910390fd5b5050565b60086020528060005260406000206000915054906101000a900460ff1681565b60008060008373ffffffffffffffffffffffffffffffffffffffff1673ffffffffffffffffffffffffffffffffffffffff168152602001908152602001600020549050919050565b6107a261115d565b6107ac60006111db565b565b6107c0826107ba610abd565b83610ac5565b6107ca8282610f90565b5050565b6000600560009054906101000a900473ffffffffffffffffffffffffffffffffffffffff16905090565b60606004805461080790611ab1565b80601f016020809104026020016040519081016040528092919081815260200182805461083390611ab1565b80156108805780601f1061085557610100808354040283529160200191610880565b820191906000526020600020905b81548152906001019060200180831161086357829003601f168201915b5050505050905090565b600080610895610abd565b905060006108a38286610990565b9050838110156108e8576040517f08c379a00000000000000000000000000000000000000000000000000000000081526004016108df90611c69565b60405180910390fd5b6108f58286868403610dc7565b60019250505092915050565b60008061090c610abd565b9050610919818585610b51565b600191505092915050565b61092c6112a1565b66071afd498d000034101561096d576040517fcd1c886700000000000000000000000000000000000000000000000000000000815260040160405180910390fd5b6000610978826112f0565b905061098482826115fb565b5061098d611735565b50565b6000600160008473ffffffffffffffffffffffffffffffffffffffff1673ffffffffffffffffffffffffffffffffffffffff16815260200190815260200160002060008373ffffffffffffffffffffffffffffffffffffffff1673ffffffffffffffffffffffffffffffffffffffff16815260200190815260200160002054905092915050565b610a1f61115d565b600073ffffffffffffffffffffffffffffffffffffffff168173ffffffffffffffffffffffffffffffffffffffff1603610a8e576040517f08c379a0000000000000000000000000000000000000000000000000000000008152600401610a8590611cfb565b60405180910390fd5b610a97816111db565b50565b600080610aa5610abd565b9050610ab2818585610dc7565b600191505092915050565b600033905090565b6000610ad18484610990565b90507fffffffffffffffffffffffffffffffffffffffffffffffffffffffffffffffff8114610b4b5781811015610b3d576040517f08c379a0000000000000000000000000000000000000000000000000000000008152600401610b3490611d67565b60405180910390fd5b610b4a8484848403610dc7565b5b50505050565b600073ffffffffffffffffffffffffffffffffffffffff168373ffffffffffffffffffffffffffffffffffffffff1603610bc0576040517f08c379a0000000000000000000000000000000000000000000000000000000008152600401610bb790611df9565b60405180910390fd5b600073ffffffffffffffffffffffffffffffffffffffff168273ffffffffffffffffffffffffffffffffffffffff1603610c2f576040517f08c379a0000000000000000000000000000000000000000000000000000000008152600401610c2690611e8b565b60405180910390fd5b610c3a83838361173f565b60008060008573ffffffffffffffffffffffffffffffffffffffff1673ffffffffffffffffffffffffffffffffffffffff16815260200190815260200160002054905081811015610cc0576040517f08c379a0000000000000000000000000000000000000000000000000000000008152600401610cb790611f1d565b60405180910390fd5b8181036000808673ffffffffffffffffffffffffffffffffffffffff1673ffffffffffffffffffffffffffffffffffffffff16815260200190815260200160002081905550816000808573ffffffffffffffffffffffffffffffffffffffff1673ffffffffffffffffffffffffffffffffffffffff168152602001908152602001600020600082825401925050819055508273ffffffffffffffffffffffffffffffffffffffff168473ffffffffffffffffffffffffffffffffffffffff167fddf252ad1be2c89b69c2b068fc378daa952ba7f163c4a11628f55a4df523b3ef84604051610dae9190611919565b60405180910390a3610dc1848484611744565b50505050565b600073ffffffffffffffffffffffffffffffffffffffff168373ffffffffffffffffffffffffffffffffffffffff1603610e36576040517f08c379a0000000000000000000000000000000000000000000000000000000008152600401610e2d90611faf565b60405180910390fd5b600073ffffffffffffffffffffffffffffffffffffffff168273ffffffffffffffffffffffffffffffffffffffff1603610ea5576040517f08c379a0000000000000000000000000000000000000000000000000000000008152600401610e9c90612041565b60405180910390fd5b80600160008573ffffffffffffffffffffffffffffffffffffffff1673ffffffffffffffffffffffffffffffffffffffff16815260200190815260200160002060008473ffffffffffffffffffffffffffffffffffffffff1673ffffffffffffffffffffffffffffffffffffffff168152602001908152602001600020819055508173ffffffffffffffffffffffffffffffffffffffff168373ffffffffffffffffffffffffffffffffffffffff167f8c5be1e5ebec7d5bd14f71427d1e84f3dd0314c0f7b2291e5b200ac8c7c3b92583604051610f839190611919565b60405180910390a3505050565b600073ffffffffffffffffffffffffffffffffffffffff168273ffffffffffffffffffffffffffffffffffffffff1603610fff576040517f08c379a0000000000000000000000000000000000000000000000000000000008152600401610ff6906120d3565b60405180910390fd5b61100b8260008361173f565b60008060008473ffffffffffffffffffffffffffffffffffffffff1673ffffffffffffffffffffffffffffffffffffffff16815260200190815260200160002054905081811015611091576040517f08c379a000000000000000000000000000000000000000000000000000000000815260040161108890612165565b60405180910390fd5b8181036000808573ffffffffffffffffffffffffffffffffffffffff1673ffffffffffffffffffffffffffffffffffffffff1681526020019081526020016000208190555081600260008282540392505081905550600073ffffffffffffffffffffffffffffffffffffffff168373ffffffffffffffffffffffffffffffffffffffff167fddf252ad1be2c89b69c2b068fc378daa952ba7f163c4a11628f55a4df523b3ef846040516111449190611919565b60405180910390a361115883600084611744565b505050565b611165610abd565b73ffffffffffffffffffffffffffffffffffffffff166111836107ce565b73ffffffffffffffffffffffffffffffffffffffff16146111d9576040517f08c379a00000000000000000000000000000000000000000000000000000000081526004016111d0906121d1565b60405180910390fd5b565b6000600560009054906101000a900473ffffffffffffffffffffffffffffffffffffffff16905081600560006101000a81548173ffffffffffffffffffffffffffffffffffffffff021916908373ffffffffffffffffffffffffffffffffffffffff1602179055508173ffffffffffffffffffffffffffffffffffffffff168173ffffffffffffffffffffffffffffffffffffffff167f8be0079c531659141344cd1fd0a4f28419497f9722a3daafe3b4186f6b6457e060405160405180910390a35050565b6002600654036112e6576040517f08c379a00000000000000000000000000000000000000000000000000000000081526004016112dd9061223d565b60405180910390fd5b6002600681905550565b606060008273ffffffffffffffffffffffffffffffffffffffff1660001b905060006040518060400160405280601081526020017f303132333435363738396162636465660000000000000000000000000000000081525090506000602a67ffffffffffffffff8111156113675761136661225d565b5b6040519080825280601f01601f1916602001820160405280156113995781602001600182028036833780820191505090505b5090507f3000000000000000000000000000000000000000000000000000000000000000816000815181106113d1576113d061228c565b5b60200101907effffffffffffffffffffffffffffffffffffffffffffffffffffffffffffff1916908160001a9053507f7800000000000000000000000000000000000000000000000000000000000000816001815181106114355761143461228c565b5b60200101907effffffffffffffffffffffffffffffffffffffffffffffffffffffffffffff1916908160001a90535060005b60148110156115ef5782600485600c846114819190611b11565b602081106114925761149161228c565b5b1a60f81b7effffffffffffffffffffffffffffffffffffffffffffffffffffffffffffff1916901c60f81c60ff16815181106114d1576114d061228c565b5b602001015160f81c60f81b826002836114ea91906122bb565b60026114f69190611b11565b815181106115075761150661228c565b5b60200101907effffffffffffffffffffffffffffffffffffffffffffffffffffffffffffff1916908160001a90535082600f60f81b85600c8461154a9190611b11565b6020811061155b5761155a61228c565b5b1a60f81b1660f81c60ff16815181106115775761157661228c565b5b602001015160f81c60f81b8260028361159091906122bb565b600361159c9190611b11565b815181106115ad576115ac61228c565b5b60200101907effffffffffffffffffffffffffffffffffffffffffffffffffffffffffffff1916908160001a90535080806115e7906122fd565b915050611467565b50809350505050919050565b600760009054906101000a900473ffffffffffffffffffffffffffffffffffffffff1673ffffffffffffffffffffffffffffffffffffffff1663b2adc1d966071afd498d0000836040518363ffffffff1660e01b815260040161165e91906117d9565b60206040518083038185885af115801561167c573d6000803e3d6000fd5b50505050506040513d601f19601f820116820180604052508101906116a1919061237b565b506001600860008473ffffffffffffffffffffffffffffffffffffffff1673ffffffffffffffffffffffffffffffffffffffff16815260200190815260200160002060006101000a81548160ff0219169083151502179055507f9dffb7e47e8f22f8dc88789aa71c22d9a04e51dd1b25e844a8806b2fa2f2194b826040516117299190611a27565b60405180910390a15050565b6001600681905550565b505050565b505050565b600081519050919050565b600082825260208201905092915050565b60005b83811015611783578082015181840152602081019050611768565b60008484015250505050565b6000601f19601f8301169050919050565b60006117ab82611749565b6117b58185611754565b93506117c5818560208601611765565b6117ce8161178f565b840191505092915050565b600060208201905081810360008301526117f381846117a0565b905092915050565b600080fd5b600073ffffffffffffffffffffffffffffffffffffffff82169050919050565b600061182b82611800565b9050919050565b61183b81611820565b811461184657600080fd5b50565b60008135905061185881611832565b92915050565b6000819050919050565b6118718161185e565b811461187c57600080fd5b50565b60008135905061188e81611868565b92915050565b600080604083850312156118ab576118aa6117fb565b5b60006118b985828601611849565b92505060206118ca8582860161187f565b9150509250929050565b60008115159050919050565b6118e9816118d4565b82525050565b600060208201905061190460008301846118e0565b92915050565b6119138161185e565b82525050565b600060208201905061192e600083018461190a565b92915050565b60008060006060848603121561194d5761194c6117fb565b5b600061195b86828701611849565b935050602061196c86828701611849565b925050604061197d8682870161187f565b9150509250925092565b600060ff82169050919050565b61199d81611987565b82525050565b60006020820190506119b86000830184611994565b92915050565b6000602082840312156119d4576119d36117fb565b5b60006119e28482850161187f565b91505092915050565b600060208284031215611a0157611a006117fb565b5b6000611a0f84828501611849565b91505092915050565b611a2181611820565b82525050565b6000602082019050611a3c6000830184611a18565b92915050565b60008060408385031215611a5957611a586117fb565b5b6000611a6785828601611849565b9250506020611a7885828601611849565b9150509250929050565b7f4e487b7100000000000000000000000000000000000000000000000000000000600052602260045260246000fd5b60006002820490506001821680611ac957607f821691505b602082108103611adc57611adb611a82565b5b50919050565b7f4e487b7100000000000000000000000000000000000000000000000000000000600052601160045260246000fd5b6000611b1c8261185e565b9150611b278361185e565b9250828201905080821115611b3f57611b3e611ae2565b5b92915050565b600081905092915050565b50565b6000611b60600083611b45565b9150611b6b82611b50565b600082019050919050565b6000611b8182611b53565b9150819050919050565b7f5769746864726177206661696c65640000000000000000000000000000000000600082015250565b6000611bc1600f83611754565b9150611bcc82611b8b565b602082019050919050565b60006020820190508181036000830152611bf081611bb4565b9050919050565b7f45524332303a2064656372656173656420616c6c6f77616e63652062656c6f7760008201527f207a65726f000000000000000000000000000000000000000000000000000000602082015250565b6000611c53602583611754565b9150611c5e82611bf7565b604082019050919050565b60006020820190508181036000830152611c8281611c46565b9050919050565b7f4f776e61626c653a206e6577206f776e657220697320746865207a65726f206160008201527f6464726573730000000000000000000000000000000000000000000000000000602082015250565b6000611ce5602683611754565b9150611cf082611c89565b604082019050919050565b60006020820190508181036000830152611d1481611cd8565b9050919050565b7f45524332303a20696e73756666696369656e7420616c6c6f77616e6365000000600082015250565b6000611d51601d83611754565b9150611d5c82611d1b565b602082019050919050565b60006020820190508181036000830152611d8081611d44565b9050919050565b7f45524332303a207472616e736665722066726f6d20746865207a65726f20616460008201527f6472657373000000000000000000000000000000000000000000000000000000602082015250565b6000611de3602583611754565b9150611dee82611d87565b604082019050919050565b60006020820190508181036000830152611e1281611dd6565b9050919050565b7f45524332303a207472616e7366657220746f20746865207a65726f206164647260008201527f6573730000000000000000000000000000000000000000000000000000000000602082015250565b6000611e75602383611754565b9150611e8082611e19565b604082019050919050565b60006020820190508181036000830152611ea481611e68565b9050919050565b7f45524332303a207472616e7366657220616d6f756e742065786365656473206260008201527f616c616e63650000000000000000000000000000000000000000000000000000602082015250565b6000611f07602683611754565b9150611f1282611eab565b604082019050919050565b60006020820190508181036000830152611f3681611efa565b9050919050565b7f45524332303a20617070726f76652066726f6d20746865207a65726f2061646460008201527f7265737300000000000000000000000000000000000000000000000000000000602082015250565b6000611f99602483611754565b9150611fa482611f3d565b604082019050919050565b60006020820190508181036000830152611fc881611f8c565b9050919050565b7f45524332303a20617070726f766520746f20746865207a65726f20616464726560008201527f7373000000000000000000000000000000000000000000000000000000000000602082015250565b600061202b602283611754565b915061203682611fcf565b604082019050919050565b6000602082019050818103600083015261205a8161201e565b9050919050565b7f45524332303a206275726e2066726f6d20746865207a65726f2061646472657360008201527f7300000000000000000000000000000000000000000000000000000000000000602082015250565b60006120bd602183611754565b91506120c882612061565b604082019050919050565b600060208201905081810360008301526120ec816120b0565b9050919050565b7f45524332303a206275726e20616d6f756e7420657863656564732062616c616e60008201527f6365000000000000000000000000000000000000000000000000000000000000602082015250565b600061214f602283611754565b915061215a826120f3565b604082019050919050565b6000602082019050818103600083015261217e81612142565b9050919050565b7f4f776e61626c653a2063616c6c6572206973206e6f7420746865206f776e6572600082015250565b60006121bb602083611754565b91506121c682612185565b602082019050919050565b600060208201905081810360008301526121ea816121ae565b9050919050565b7f5265656e7472616e637947756172643a207265656e7472616e742063616c6c00600082015250565b6000612227601f83611754565b9150612232826121f1565b602082019050919050565b600060208201905081810360008301526122568161221a565b9050919050565b7f4e487b7100000000000000000000000000000000000000000000000000000000600052604160045260246000fd5b7f4e487b7100000000000000000000000000000000000000000000000000000000600052603260045260246000fd5b60006122c68261185e565b91506122d18361185e565b92508282026122df8161185e565b915082820484148315176122f6576122f5611ae2565b5b5092915050565b60006123088261185e565b91507fffffffffffffffffffffffffffffffffffffffffffffffffffffffffffffffff820361233a57612339611ae2565b5b600182019050919050565b6000819050919050565b61235881612345565b811461236357600080fd5b50565b6000815190506123758161234f565b92915050565b600060208284031215612391576123906117fb565b5b600061239f84828501612366565b9150509291505056fea26469706673582212204182d3679de0ba320797ccf082db77ca361612d90bebff108ab703db9ed20de564736f6c63430008130033",
  "devdoc": {
    "author": "guneriv.eth",
    "details": "ERC20 token with burnable, ownable, and reentrancy guard features. Integrated with BasescanCheck for contract verification check.",
    "errors": {
      "InsufficientPayment()": [
        {
          "details": "Custom error when the contract balance is insufficient for verification requests"
        }
      ],
      "VerificationNotChecked()": [
        {
          "details": "Custom error when a contract is attempted to be used before verification"
        }
      ]
    },
    "events": {
      "Approval(address,address,uint256)": {
        "details": "Emitted when the allowance of a `spender` for an `owner` is set by a call to {approve}. `value` is the new allowance."
      },
      "CheckRequestSent(address)": {
        "params": {
          "contractAddress": "The address of the contract to be checked"
        }
      },
      "Transfer(address,address,uint256)": {
        "details": "Emitted when `value` tokens are moved from one account (`from`) to another (`to`). Note that `value` may be zero."
      }
    },
    "kind": "dev",
    "methods": {
      "allowance(address,address)": {
        "details": "See {IERC20-allowance}."
      },
      "approve(address,uint256)": {
        "params": {
          "amount": "The number of tokens to approve for spending",
          "spender": "The address to which tokens are allowed to be spent"
        },
        "returns": {
          "_0": "bool indicating success or failure"
        }
      },
      "balanceOf(address)": {
        "details": "See {IERC20-balanceOf}."
      },
      "burn(uint256)": {
        "details": "Destroys `amount` tokens from the caller. See {ERC20-_burn}."
      },
      "burnFrom(address,uint256)": {
        "details": "Destroys `amount` tokens from `account`, deducting from the caller's allowance. See {ERC20-_burn} and {ERC20-allowance}. Requirements: - the caller must have allowance for ``accounts``'s tokens of at least `amount`."
      },
      "checkVerification(address)": {
        "details": "This function uses 0.002 ether to initiate the verification check request and marks the contract as checked. It is protected from reentrancy attacks using the `nonReentrant` modifier.",
        "params": {
          "contractAddress": "The address of the contract to verify."
        }
      },
      "constructor": {
        "details": "The constructor initializes the ERC20 token with the name \"Scam Hunter Token\" and symbol \"SHT\". It also sets the deployer as the owner of the contract by calling the Ownable constructor, and initializes the  BasescanCheck contract address for performing contract verification checks. ",
        "params": {
          "basescanCheckAddress": "The address of the BasescanCheck contract used for verification requests."
        }
      },
      "decimals()": {
        "details": "Returns the number of decimals used to get its user representation. For example, if `decimals` equals `2`, a balance of `505` tokens should be displayed to a user as `5.05` (`505 / 10 ** 2`). Tokens usually opt for a value of 18, imitating the relationship between Ether and Wei. This is the value {ERC20} uses, unless this function is overridden; NOTE: This information is only used for _display_ purposes: it in no way affects any of the arithmetic of the contract, including {IERC20-balanceOf} and {IERC20-transfer}."
      },
      "decreaseAllowance(address,uint256)": {
        "details": "Atomically decreases the allowance granted to `spender` by the caller. This is an alternative to {approve} that can be used as a mitigation for problems described in {IERC20-approve}. Emits an {Approval} event indicating the updated allowance. Requirements: - `spender` cannot be the zero address. - `spender` must have allowance for the caller of at least `subtractedValue`."
      },
      "increaseAllowance(address,uint256)": {
        "details": "Atomically increases the allowance granted to `spender` by the caller. This is an alternative to {approve} that can be used as a mitigation for problems described in {IERC20-approve}. Emits an {Approval} event indicating the updated allowance. Requirements: - `spender` cannot be the zero address."
      },
      "name()": {
        "details": "Returns the name of the token."
      },
      "owner()": {
        "details": "Returns the address of the current owner."
      },
      "renounceOwnership()": {
        "details": "Leaves the contract without owner. It will not be possible to call `onlyOwner` functions anymore. Can only be called by the current owner. NOTE: Renouncing ownership will leave the contract without an owner, thereby removing any functionality that is only available to the owner."
      },
      "symbol()": {
        "details": "Returns the symbol of the token, usually a shorter version of the name."
      },
      "totalSupply()": {
        "details": "See {IERC20-totalSupply}."
      },
      "transfer(address,uint256)": {
        "details": "See {IERC20-transfer}. Requirements: - `to` cannot be the zero address. - the caller must have a balance of at least `amount`."
      },
      "transferFrom(address,address,uint256)": {
        "details": "See {IERC20-transferFrom}. Emits an {Approval} event indicating the updated allowance. This is not required by the EIP. See the note at the beginning of {ERC20}. NOTE: Does not update the allowance if the current allowance is the maximum `uint256`. Requirements: - `from` and `to` cannot be the zero address. - `from` must have a balance of at least `amount`. - the caller must have allowance for ``from``'s tokens of at least `amount`."
      },
      "transferOwnership(address)": {
        "details": "Transfers ownership of the contract to a new account (`newOwner`). Can only be called by the current owner."
      },
      "withdraw(address)": {
        "params": {
          "receiver": "The address to send the Ether to"
        }
      }
    },
    "stateVariables": {
      "basescanCheck": {
        "details": "Chainlink-based contract for AI-driven verification requests"
      },
      "isContractChecked": {
        "details": "Mapping to track whether a contract verification has been checked or not"
      }
    },
    "title": "ScamHunterToken",
    "version": 1
  },
  "userdoc": {
    "events": {
      "CheckRequestSent(address)": {
        "notice": "Emitted when a request to check a contract verification is sent"
      }
    },
    "kind": "user",
    "methods": {
      "approve(address,uint256)": {
        "notice": "Approves an allowance for a spender, only if the contract verification is checked.  After verification check, it's up to the user to approve even though the contract is not a verified on Basescan."
      },
      "checkVerification(address)": {
        "notice": "Verifies a contract by sending a request to the basescanCheck contract."
      },
      "constructor": {
        "notice": "Constructor to deploy the ScamHunterToken contract."
      },
      "withdraw(address)": {
        "notice": "Allows the contract owner to withdraw the contract's Ether balance"
      }
    },
    "version": 1
  },
  "storageLayout": {
    "storage": [
      {
        "astId": 182,
        "contract": "contracts/ScamHunterToken.sol:ScamHunterToken",
        "label": "_balances",
        "offset": 0,
        "slot": "0",
        "type": "t_mapping(t_address,t_uint256)"
      },
      {
        "astId": 188,
        "contract": "contracts/ScamHunterToken.sol:ScamHunterToken",
        "label": "_allowances",
        "offset": 0,
        "slot": "1",
        "type": "t_mapping(t_address,t_mapping(t_address,t_uint256))"
      },
      {
        "astId": 190,
        "contract": "contracts/ScamHunterToken.sol:ScamHunterToken",
        "label": "_totalSupply",
        "offset": 0,
        "slot": "2",
        "type": "t_uint256"
      },
      {
        "astId": 192,
        "contract": "contracts/ScamHunterToken.sol:ScamHunterToken",
        "label": "_name",
        "offset": 0,
        "slot": "3",
        "type": "t_string_storage"
      },
      {
        "astId": 194,
        "contract": "contracts/ScamHunterToken.sol:ScamHunterToken",
        "label": "_symbol",
        "offset": 0,
        "slot": "4",
        "type": "t_string_storage"
      },
      {
        "astId": 7,
        "contract": "contracts/ScamHunterToken.sol:ScamHunterToken",
        "label": "_owner",
        "offset": 0,
        "slot": "5",
        "type": "t_address"
      },
      {
        "astId": 123,
        "contract": "contracts/ScamHunterToken.sol:ScamHunterToken",
        "label": "_status",
        "offset": 0,
        "slot": "6",
        "type": "t_uint256"
      },
      {
        "astId": 947,
        "contract": "contracts/ScamHunterToken.sol:ScamHunterToken",
        "label": "basescanCheck",
        "offset": 0,
        "slot": "7",
        "type": "t_contract(IBasescanCheck)1294"
      },
      {
        "astId": 952,
        "contract": "contracts/ScamHunterToken.sol:ScamHunterToken",
        "label": "isContractChecked",
        "offset": 0,
        "slot": "8",
        "type": "t_mapping(t_address,t_bool)"
      }
    ],
    "types": {
      "t_address": {
        "encoding": "inplace",
        "label": "address",
        "numberOfBytes": "20"
      },
      "t_bool": {
        "encoding": "inplace",
        "label": "bool",
        "numberOfBytes": "1"
      },
      "t_contract(IBasescanCheck)1294": {
        "encoding": "inplace",
        "label": "contract IBasescanCheck",
        "numberOfBytes": "20"
      },
      "t_mapping(t_address,t_bool)": {
        "encoding": "mapping",
        "key": "t_address",
        "label": "mapping(address => bool)",
        "numberOfBytes": "32",
        "value": "t_bool"
      },
      "t_mapping(t_address,t_mapping(t_address,t_uint256))": {
        "encoding": "mapping",
        "key": "t_address",
        "label": "mapping(address => mapping(address => uint256))",
        "numberOfBytes": "32",
        "value": "t_mapping(t_address,t_uint256)"
      },
      "t_mapping(t_address,t_uint256)": {
        "encoding": "mapping",
        "key": "t_address",
        "label": "mapping(address => uint256)",
        "numberOfBytes": "32",
        "value": "t_uint256"
      },
      "t_string_storage": {
        "encoding": "bytes",
        "label": "string",
        "numberOfBytes": "32"
      },
      "t_uint256": {
        "encoding": "inplace",
        "label": "uint256",
        "numberOfBytes": "32"
      }
    }
  }
}