{
  "address": "0x19674d54274FffE25949723Ad52056075c3D3C1d",
  "abi": [
    {
      "inputs": [
        {
          "internalType": "address",
          "name": "onChainAI_address",
          "type": "address"
        }
      ],
      "stateMutability": "payable",
      "type": "constructor"
    },
    {
      "inputs": [],
      "name": "ContractNotAnalyzedYet",
      "type": "error"
    },
    {
      "inputs": [],
      "name": "InsufficientContractBalance",
      "type": "error"
    },
    {
      "anonymous": false,
      "inputs": [
        {
          "indexed": true,
          "internalType": "address",
          "name": "_contractAddress",
          "type": "address"
        },
        {
          "indexed": false,
          "internalType": "bytes32",
          "name": "analysis",
          "type": "bytes32"
        }
      ],
      "name": "Analyzed",
      "type": "event"
    },
    {
      "anonymous": false,
      "inputs": [
        {
          "indexed": true,
          "internalType": "address",
          "name": "owner",
          "type": "address"
        },
        {
          "indexed": true,
          "internalType": "address",
          "name": "spender",
          "type": "address"
        },
        {
          "indexed": false,
          "internalType": "uint256",
          "name": "value",
          "type": "uint256"
        }
      ],
      "name": "Approval",
      "type": "event"
    },
    {
      "anonymous": false,
      "inputs": [
        {
          "indexed": true,
          "internalType": "address",
          "name": "previousOwner",
          "type": "address"
        },
        {
          "indexed": true,
          "internalType": "address",
          "name": "newOwner",
          "type": "address"
        }
      ],
      "name": "OwnershipTransferred",
      "type": "event"
    },
    {
      "anonymous": false,
      "inputs": [
        {
          "indexed": false,
          "internalType": "address",
          "name": "_contractAddress",
          "type": "address"
        },
        {
          "indexed": false,
          "internalType": "string",
          "name": "error",
          "type": "string"
        }
      ],
      "name": "RequestFailed",
      "type": "event"
    },
    {
      "anonymous": false,
      "inputs": [
        {
          "indexed": false,
          "internalType": "address",
          "name": "_contractAddresse",
          "type": "address"
        },
        {
          "indexed": false,
          "internalType": "bool",
          "name": "sended",
          "type": "bool"
        }
      ],
      "name": "RequestSended",
      "type": "event"
    },
    {
      "anonymous": false,
      "inputs": [
        {
          "indexed": true,
          "internalType": "address",
          "name": "from",
          "type": "address"
        },
        {
          "indexed": true,
          "internalType": "address",
          "name": "to",
          "type": "address"
        },
        {
          "indexed": false,
          "internalType": "uint256",
          "name": "value",
          "type": "uint256"
        }
      ],
      "name": "Transfer",
      "type": "event"
    },
    {
      "inputs": [
        {
          "internalType": "address",
          "name": "owner",
          "type": "address"
        },
        {
          "internalType": "address",
          "name": "spender",
          "type": "address"
        }
      ],
      "name": "allowance",
      "outputs": [
        {
          "internalType": "uint256",
          "name": "",
          "type": "uint256"
        }
      ],
      "stateMutability": "view",
      "type": "function"
    },
    {
      "inputs": [
        {
          "internalType": "address",
          "name": "_contractAddress",
          "type": "address"
        }
      ],
      "name": "analyzeContract",
      "outputs": [],
      "stateMutability": "nonpayable",
      "type": "function"
    },
    {
      "inputs": [
        {
          "internalType": "address",
          "name": "",
          "type": "address"
        }
      ],
      "name": "analyzedContract",
      "outputs": [
        {
          "internalType": "bool",
          "name": "",
          "type": "bool"
        }
      ],
      "stateMutability": "view",
      "type": "function"
    },
    {
      "inputs": [
        {
          "internalType": "address",
          "name": "spender",
          "type": "address"
        },
        {
          "internalType": "uint256",
          "name": "amount",
          "type": "uint256"
        }
      ],
      "name": "approve",
      "outputs": [
        {
          "internalType": "bool",
          "name": "",
          "type": "bool"
        }
      ],
      "stateMutability": "nonpayable",
      "type": "function"
    },
    {
      "inputs": [
        {
          "internalType": "address",
          "name": "account",
          "type": "address"
        }
      ],
      "name": "balanceOf",
      "outputs": [
        {
          "internalType": "uint256",
          "name": "",
          "type": "uint256"
        }
      ],
      "stateMutability": "view",
      "type": "function"
    },
    {
      "inputs": [
        {
          "internalType": "uint256",
          "name": "amount",
          "type": "uint256"
        }
      ],
      "name": "burn",
      "outputs": [],
      "stateMutability": "nonpayable",
      "type": "function"
    },
    {
      "inputs": [
        {
          "internalType": "address",
          "name": "account",
          "type": "address"
        },
        {
          "internalType": "uint256",
          "name": "amount",
          "type": "uint256"
        }
      ],
      "name": "burnFrom",
      "outputs": [],
      "stateMutability": "nonpayable",
      "type": "function"
    },
    {
      "inputs": [],
      "name": "decimals",
      "outputs": [
        {
          "internalType": "uint8",
          "name": "",
          "type": "uint8"
        }
      ],
      "stateMutability": "view",
      "type": "function"
    },
    {
      "inputs": [
        {
          "internalType": "address",
          "name": "spender",
          "type": "address"
        },
        {
          "internalType": "uint256",
          "name": "subtractedValue",
          "type": "uint256"
        }
      ],
      "name": "decreaseAllowance",
      "outputs": [
        {
          "internalType": "bool",
          "name": "",
          "type": "bool"
        }
      ],
      "stateMutability": "nonpayable",
      "type": "function"
    },
    {
      "inputs": [
        {
          "internalType": "address",
          "name": "spender",
          "type": "address"
        },
        {
          "internalType": "uint256",
          "name": "addedValue",
          "type": "uint256"
        }
      ],
      "name": "increaseAllowance",
      "outputs": [
        {
          "internalType": "bool",
          "name": "",
          "type": "bool"
        }
      ],
      "stateMutability": "nonpayable",
      "type": "function"
    },
    {
      "inputs": [],
      "name": "name",
      "outputs": [
        {
          "internalType": "string",
          "name": "",
          "type": "string"
        }
      ],
      "stateMutability": "view",
      "type": "function"
    },
    {
      "inputs": [],
      "name": "owner",
      "outputs": [
        {
          "internalType": "address",
          "name": "",
          "type": "address"
        }
      ],
      "stateMutability": "view",
      "type": "function"
    },
    {
      "inputs": [],
      "name": "renounceOwnership",
      "outputs": [],
      "stateMutability": "nonpayable",
      "type": "function"
    },
    {
      "inputs": [],
      "name": "symbol",
      "outputs": [
        {
          "internalType": "string",
          "name": "",
          "type": "string"
        }
      ],
      "stateMutability": "view",
      "type": "function"
    },
    {
      "inputs": [],
      "name": "totalSupply",
      "outputs": [
        {
          "internalType": "uint256",
          "name": "",
          "type": "uint256"
        }
      ],
      "stateMutability": "view",
      "type": "function"
    },
    {
      "inputs": [
        {
          "internalType": "address",
          "name": "to",
          "type": "address"
        },
        {
          "internalType": "uint256",
          "name": "amount",
          "type": "uint256"
        }
      ],
      "name": "transfer",
      "outputs": [
        {
          "internalType": "bool",
          "name": "",
          "type": "bool"
        }
      ],
      "stateMutability": "nonpayable",
      "type": "function"
    },
    {
      "inputs": [
        {
          "internalType": "address",
          "name": "from",
          "type": "address"
        },
        {
          "internalType": "address",
          "name": "to",
          "type": "address"
        },
        {
          "internalType": "uint256",
          "name": "amount",
          "type": "uint256"
        }
      ],
      "name": "transferFrom",
      "outputs": [
        {
          "internalType": "bool",
          "name": "",
          "type": "bool"
        }
      ],
      "stateMutability": "nonpayable",
      "type": "function"
    },
    {
      "inputs": [
        {
          "internalType": "address",
          "name": "newOwner",
          "type": "address"
        }
      ],
      "name": "transferOwnership",
      "outputs": [],
      "stateMutability": "nonpayable",
      "type": "function"
    },
    {
      "inputs": [
        {
          "internalType": "address",
          "name": "receiver",
          "type": "address"
        }
      ],
      "name": "withdraw",
      "outputs": [],
      "stateMutability": "nonpayable",
      "type": "function"
    },
    {
      "stateMutability": "payable",
      "type": "receive"
    }
  ],
  "transactionHash": "0xa216b2b93ed4376905dd3c5bac41c25f34922f81eca0034e439c9a08feaa05f1",
  "args": [
    "0xbfFE7bC0A26FfE6f7882ABb6B7C4f299A5138E66"
  ],
  "numDeployments": 2,
  "solcInputHash": "a8d3a958ad3696df77e71099c94b73db",
  "bytecode": "0x6080604052604051620017163803806200171683398101604081905262000026916200020b565b6040518060400160405280601181526020017029b1b0b690243ab73a32b9102a37b5b2b760791b8152506040518060400160405280600381526020016214d21560ea1b81525081600390816200007d9190620002e1565b5060046200008c8282620002e1565b505050620000a9620000a3620000ea60201b60201c565b620000ee565b6001600655620000c43369d3c21bcecceda100000062000140565b600780546001600160a01b0319166001600160a01b0392909216919091179055620003d5565b3390565b600580546001600160a01b038381166001600160a01b0319831681179093556040519116919082907f8be0079c531659141344cd1fd0a4f28419497f9722a3daafe3b4186f6b6457e090600090a35050565b6001600160a01b0382166200019b5760405162461bcd60e51b815260206004820152601f60248201527f45524332303a206d696e7420746f20746865207a65726f206164647265737300604482015260640160405180910390fd5b8060026000828254620001af9190620003ad565b90915550506001600160a01b038216600081815260208181526040808320805486019055518481527fddf252ad1be2c89b69c2b068fc378daa952ba7f163c4a11628f55a4df523b3ef910160405180910390a35050565b505050565b6000602082840312156200021e57600080fd5b81516001600160a01b03811681146200023657600080fd5b9392505050565b634e487b7160e01b600052604160045260246000fd5b600181811c908216806200026857607f821691505b6020821081036200028957634e487b7160e01b600052602260045260246000fd5b50919050565b601f8211156200020657600081815260208120601f850160051c81016020861015620002b85750805b601f850160051c820191505b81811015620002d957828155600101620002c4565b505050505050565b81516001600160401b03811115620002fd57620002fd6200023d565b62000315816200030e845462000253565b846200028f565b602080601f8311600181146200034d5760008415620003345750858301515b600019600386901b1c1916600185901b178555620002d9565b600085815260208120601f198616915b828110156200037e578886015182559484019460019091019084016200035d565b50858210156200039d5787850151600019600388901b60f8161c191681555b5050505050600190811b01905550565b80820180821115620003cf57634e487b7160e01b600052601160045260246000fd5b92915050565b61133180620003e56000396000f3fe6080604052600436106101185760003560e01c806370a08231116100a0578063a457c2d711610064578063a457c2d714610304578063a9059cbb14610324578063aa558c8f14610344578063dd62ed3e14610374578063f2fde38b1461039457600080fd5b806370a082311461025c578063715018a61461029257806379cc6790146102a75780638da5cb5b146102c757806395d89b41146102ef57600080fd5b8063313ce567116100e7578063313ce567146101be578063387ba9ca146101da57806339509351146101fc57806342966c681461021c57806351cff8d91461023c57600080fd5b806306fdde0314610124578063095ea7b31461014f57806318160ddd1461017f57806323b872dd1461019e57600080fd5b3661011f57005b600080fd5b34801561013057600080fd5b506101396103b4565b6040516101469190611030565b60405180910390f35b34801561015b57600080fd5b5061016f61016a36600461105f565b610446565b6040519015158152602001610146565b34801561018b57600080fd5b506002545b604051908152602001610146565b3480156101aa57600080fd5b5061016f6101b9366004611089565b610464565b3480156101ca57600080fd5b5060405160128152602001610146565b3480156101e657600080fd5b506101fa6101f53660046110c5565b610488565b005b34801561020857600080fd5b5061016f61021736600461105f565b610641565b34801561022857600080fd5b506101fa6102373660046110e0565b61066d565b34801561024857600080fd5b506101fa6102573660046110c5565b610677565b34801561026857600080fd5b506101906102773660046110c5565b6001600160a01b031660009081526020819052604090205490565b34801561029e57600080fd5b506101fa61071d565b3480156102b357600080fd5b506101fa6102c236600461105f565b610731565b3480156102d357600080fd5b506005546040516001600160a01b039091168152602001610146565b3480156102fb57600080fd5b50610139610746565b34801561031057600080fd5b5061016f61031f36600461105f565b610755565b34801561033057600080fd5b5061016f61033f36600461105f565b6107d0565b34801561035057600080fd5b5061016f61035f3660046110c5565b60086020526000908152604090205460ff1681565b34801561038057600080fd5b5061019061038f3660046110f9565b6107de565b3480156103a057600080fd5b506101fa6103af3660046110c5565b610809565b6060600380546103c39061112c565b80601f01602080910402602001604051908101604052809291908181526020018280546103ef9061112c565b801561043c5780601f106104115761010080835404028352916020019161043c565b820191906000526020600020905b81548152906001019060200180831161041f57829003601f168201915b5050505050905090565b600061045183610488565b61045b838361087f565b90505b92915050565b60003361047285828561088d565b61047d858585610907565b506001949350505050565b610490610aab565b66071afd498d00004710156104b85760405163786e0a9960e01b815260040160405180910390fd5b6001600160a01b0381166000908152600860205260408120805460ff191660011790556104e482610b04565b60075460405163b2adc1d960e01b81529192506001600160a01b03169063b2adc1d99066071afd498d00009061051e908590600401611030565b60206040518083038185885af193505050508015610559575060408051601f3d908101601f1916820190925261055691810190611166565b60015b6105ef5761056561117f565b806308c379a0036105e357506105796111d6565b8061058457506105e5565b7f7f7ce7cf4c1b43e1bf51034d0ad7062abb9d4529c7bb0510d512249b0fb7145283826040516105b5929190611260565b60405180910390a1506001600160a01b0382166000908152600860205260409020805460ff19169055610633565b505b3d6000803e3d6000fd5b604080516001600160a01b0385168152600160208201527f95d4335e66c5b42b21aff1c84efa27308e76ab23c9fb8e2267491aa8f9d275df910160405180910390a1505b5061063e6001600655565b50565b60003361066381858561065483836107de565b61065e91906112a2565b610cef565b5060019392505050565b61063e3382610e14565b61067f610f3e565b6000816001600160a01b03164760405160006040518083038185875af1925050503d80600081146106cc576040519150601f19603f3d011682016040523d82523d6000602084013e6106d1565b606091505b50509050806107195760405162461bcd60e51b815260206004820152600f60248201526e15da5d1a191c985dc819985a5b1959608a1b60448201526064015b60405180910390fd5b5050565b610725610f3e565b61072f6000610f98565b565b61073c82338361088d565b6107198282610e14565b6060600480546103c39061112c565b6000338161076382866107de565b9050838110156107c35760405162461bcd60e51b815260206004820152602560248201527f45524332303a2064656372656173656420616c6c6f77616e63652062656c6f77604482015264207a65726f60d81b6064820152608401610710565b61047d8286868403610cef565b600033610663818585610907565b6001600160a01b03918216600090815260016020908152604080832093909416825291909152205490565b610811610f3e565b6001600160a01b0381166108765760405162461bcd60e51b815260206004820152602660248201527f4f776e61626c653a206e6577206f776e657220697320746865207a65726f206160448201526564647265737360d01b6064820152608401610710565b61063e81610f98565b600033610663818585610cef565b600061089984846107de565b9050600019811461090157818110156108f45760405162461bcd60e51b815260206004820152601d60248201527f45524332303a20696e73756666696369656e7420616c6c6f77616e63650000006044820152606401610710565b6109018484848403610cef565b50505050565b6001600160a01b03831661096b5760405162461bcd60e51b815260206004820152602560248201527f45524332303a207472616e736665722066726f6d20746865207a65726f206164604482015264647265737360d81b6064820152608401610710565b6001600160a01b0382166109cd5760405162461bcd60e51b815260206004820152602360248201527f45524332303a207472616e7366657220746f20746865207a65726f206164647260448201526265737360e81b6064820152608401610710565b6001600160a01b03831660009081526020819052604090205481811015610a455760405162461bcd60e51b815260206004820152602660248201527f45524332303a207472616e7366657220616d6f756e7420657863656564732062604482015265616c616e636560d01b6064820152608401610710565b6001600160a01b03848116600081815260208181526040808320878703905593871680835291849020805487019055925185815290927fddf252ad1be2c89b69c2b068fc378daa952ba7f163c4a11628f55a4df523b3ef910160405180910390a3610901565b600260065403610afd5760405162461bcd60e51b815260206004820152601f60248201527f5265656e7472616e637947756172643a207265656e7472616e742063616c6c006044820152606401610710565b6002600655565b604080518082018252601081526f181899199a1a9b1b9c1cb0b131b232b360811b60208201528151602a80825260608281019094526001600160a01b0385169291600091602082018180368337019050509050600360fc1b81600081518110610b6f57610b6f6112b5565b60200101906001600160f81b031916908160001a905350600f60fb1b81600181518110610b9e57610b9e6112b5565b60200101906001600160f81b031916908160001a90535060005b6014811015610ce65782600485610bd084600c6112a2565b60208110610be057610be06112b5565b1a60f81b6001600160f81b031916901c60f81c60ff1681518110610c0657610c066112b5565b01602001516001600160f81b03191682610c218360026112cb565b610c2c9060026112a2565b81518110610c3c57610c3c6112b5565b60200101906001600160f81b031916908160001a9053508284610c6083600c6112a2565b60208110610c7057610c706112b5565b825191901a600f16908110610c8757610c876112b5565b01602001516001600160f81b03191682610ca28360026112cb565b610cad9060036112a2565b81518110610cbd57610cbd6112b5565b60200101906001600160f81b031916908160001a90535080610cde816112e2565b915050610bb8565b50949350505050565b6001600160a01b038316610d515760405162461bcd60e51b8152602060048201526024808201527f45524332303a20617070726f76652066726f6d20746865207a65726f206164646044820152637265737360e01b6064820152608401610710565b6001600160a01b038216610db25760405162461bcd60e51b815260206004820152602260248201527f45524332303a20617070726f766520746f20746865207a65726f206164647265604482015261737360f01b6064820152608401610710565b6001600160a01b0383811660008181526001602090815260408083209487168084529482529182902085905590518481527f8c5be1e5ebec7d5bd14f71427d1e84f3dd0314c0f7b2291e5b200ac8c7c3b92591015b60405180910390a3505050565b6001600160a01b038216610e745760405162461bcd60e51b815260206004820152602160248201527f45524332303a206275726e2066726f6d20746865207a65726f206164647265736044820152607360f81b6064820152608401610710565b6001600160a01b03821660009081526020819052604090205481811015610ee85760405162461bcd60e51b815260206004820152602260248201527f45524332303a206275726e20616d6f756e7420657863656564732062616c616e604482015261636560f01b6064820152608401610710565b6001600160a01b0383166000818152602081815260408083208686039055600280548790039055518581529192917fddf252ad1be2c89b69c2b068fc378daa952ba7f163c4a11628f55a4df523b3ef9101610e07565b6005546001600160a01b0316331461072f5760405162461bcd60e51b815260206004820181905260248201527f4f776e61626c653a2063616c6c6572206973206e6f7420746865206f776e65726044820152606401610710565b600580546001600160a01b038381166001600160a01b0319831681179093556040519116919082907f8be0079c531659141344cd1fd0a4f28419497f9722a3daafe3b4186f6b6457e090600090a35050565b6000815180845260005b8181101561101057602081850181015186830182015201610ff4565b506000602082860101526020601f19601f83011685010191505092915050565b60208152600061045b6020830184610fea565b80356001600160a01b038116811461105a57600080fd5b919050565b6000806040838503121561107257600080fd5b61107b83611043565b946020939093013593505050565b60008060006060848603121561109e57600080fd5b6110a784611043565b92506110b560208501611043565b9150604084013590509250925092565b6000602082840312156110d757600080fd5b61045b82611043565b6000602082840312156110f257600080fd5b5035919050565b6000806040838503121561110c57600080fd5b61111583611043565b915061112360208401611043565b90509250929050565b600181811c9082168061114057607f821691505b60208210810361116057634e487b7160e01b600052602260045260246000fd5b50919050565b60006020828403121561117857600080fd5b5051919050565b600060033d11156111985760046000803e5060005160e01c5b90565b601f8201601f1916810167ffffffffffffffff811182821017156111cf57634e487b7160e01b600052604160045260246000fd5b6040525050565b600060443d10156111e45790565b6040516003193d81016004833e81513d67ffffffffffffffff816024840111818411171561121457505050505090565b828501915081518181111561122c5750505050505090565b843d87010160208285010111156112465750505050505090565b6112556020828601018761119b565b509095945050505050565b6001600160a01b038316815260406020820181905260009061128490830184610fea565b949350505050565b634e487b7160e01b600052601160045260246000fd5b8082018082111561045e5761045e61128c565b634e487b7160e01b600052603260045260246000fd5b808202811582820484141761045e5761045e61128c565b6000600182016112f4576112f461128c565b506001019056fea26469706673582212206842b49220a7b8cf7b21300154cab0c4c716da14aa746f940c50746280e0415964736f6c63430008130033",
  "devdoc": {
    "events": {
      "Approval(address,address,uint256)": {
        "details": "Emitted when the allowance of a `spender` for an `owner` is set by a call to {approve}. `value` is the new allowance."
      },
      "Transfer(address,address,uint256)": {
        "details": "Emitted when `value` tokens are moved from one account (`from`) to another (`to`). Note that `value` may be zero."
      }
    },
    "kind": "dev",
    "methods": {
      "allowance(address,address)": {
        "details": "See {IERC20-allowance}."
      },
      "approve(address,uint256)": {
        "details": "See {IERC20-approve}. NOTE: If `amount` is the maximum `uint256`, the allowance is not updated on `transferFrom`. This is semantically equivalent to an infinite approval. Requirements: - `spender` cannot be the zero address."
      },
      "balanceOf(address)": {
        "details": "See {IERC20-balanceOf}."
      },
      "burn(uint256)": {
        "details": "Destroys `amount` tokens from the caller. See {ERC20-_burn}."
      },
      "burnFrom(address,uint256)": {
        "details": "Destroys `amount` tokens from `account`, deducting from the caller's allowance. See {ERC20-_burn} and {ERC20-allowance}. Requirements: - the caller must have allowance for ``accounts``'s tokens of at least `amount`."
      },
      "decimals()": {
        "details": "Returns the number of decimals used to get its user representation. For example, if `decimals` equals `2`, a balance of `505` tokens should be displayed to a user as `5.05` (`505 / 10 ** 2`). Tokens usually opt for a value of 18, imitating the relationship between Ether and Wei. This is the value {ERC20} uses, unless this function is overridden; NOTE: This information is only used for _display_ purposes: it in no way affects any of the arithmetic of the contract, including {IERC20-balanceOf} and {IERC20-transfer}."
      },
      "decreaseAllowance(address,uint256)": {
        "details": "Atomically decreases the allowance granted to `spender` by the caller. This is an alternative to {approve} that can be used as a mitigation for problems described in {IERC20-approve}. Emits an {Approval} event indicating the updated allowance. Requirements: - `spender` cannot be the zero address. - `spender` must have allowance for the caller of at least `subtractedValue`."
      },
      "increaseAllowance(address,uint256)": {
        "details": "Atomically increases the allowance granted to `spender` by the caller. This is an alternative to {approve} that can be used as a mitigation for problems described in {IERC20-approve}. Emits an {Approval} event indicating the updated allowance. Requirements: - `spender` cannot be the zero address."
      },
      "name()": {
        "details": "Returns the name of the token."
      },
      "owner()": {
        "details": "Returns the address of the current owner."
      },
      "renounceOwnership()": {
        "details": "Leaves the contract without owner. It will not be possible to call `onlyOwner` functions anymore. Can only be called by the current owner. NOTE: Renouncing ownership will leave the contract without an owner, thereby removing any functionality that is only available to the owner."
      },
      "symbol()": {
        "details": "Returns the symbol of the token, usually a shorter version of the name."
      },
      "totalSupply()": {
        "details": "See {IERC20-totalSupply}."
      },
      "transfer(address,uint256)": {
        "details": "See {IERC20-transfer}. Requirements: - `to` cannot be the zero address. - the caller must have a balance of at least `amount`."
      },
      "transferFrom(address,address,uint256)": {
        "details": "See {IERC20-transferFrom}. Emits an {Approval} event indicating the updated allowance. This is not required by the EIP. See the note at the beginning of {ERC20}. NOTE: Does not update the allowance if the current allowance is the maximum `uint256`. Requirements: - `from` and `to` cannot be the zero address. - `from` must have a balance of at least `amount`. - the caller must have allowance for ``from``'s tokens of at least `amount`."
      },
      "transferOwnership(address)": {
        "details": "Transfers ownership of the contract to a new account (`newOwner`). Can only be called by the current owner."
      }
    },
    "version": 1
  },
  "userdoc": {
    "kind": "user",
    "methods": {},
    "version": 1
  },
  "storageLayout": {
    "storage": [
      {
        "astId": 182,
        "contract": "contracts/ScamHunterToken.sol:ScamHunterToken",
        "label": "_balances",
        "offset": 0,
        "slot": "0",
        "type": "t_mapping(t_address,t_uint256)"
      },
      {
        "astId": 188,
        "contract": "contracts/ScamHunterToken.sol:ScamHunterToken",
        "label": "_allowances",
        "offset": 0,
        "slot": "1",
        "type": "t_mapping(t_address,t_mapping(t_address,t_uint256))"
      },
      {
        "astId": 190,
        "contract": "contracts/ScamHunterToken.sol:ScamHunterToken",
        "label": "_totalSupply",
        "offset": 0,
        "slot": "2",
        "type": "t_uint256"
      },
      {
        "astId": 192,
        "contract": "contracts/ScamHunterToken.sol:ScamHunterToken",
        "label": "_name",
        "offset": 0,
        "slot": "3",
        "type": "t_string_storage"
      },
      {
        "astId": 194,
        "contract": "contracts/ScamHunterToken.sol:ScamHunterToken",
        "label": "_symbol",
        "offset": 0,
        "slot": "4",
        "type": "t_string_storage"
      },
      {
        "astId": 7,
        "contract": "contracts/ScamHunterToken.sol:ScamHunterToken",
        "label": "_owner",
        "offset": 0,
        "slot": "5",
        "type": "t_address"
      },
      {
        "astId": 123,
        "contract": "contracts/ScamHunterToken.sol:ScamHunterToken",
        "label": "_status",
        "offset": 0,
        "slot": "6",
        "type": "t_uint256"
      },
      {
        "astId": 1023,
        "contract": "contracts/ScamHunterToken.sol:ScamHunterToken",
        "label": "onChainAI",
        "offset": 0,
        "slot": "7",
        "type": "t_contract(IOnChainAI)999"
      },
      {
        "astId": 1027,
        "contract": "contracts/ScamHunterToken.sol:ScamHunterToken",
        "label": "analyzedContract",
        "offset": 0,
        "slot": "8",
        "type": "t_mapping(t_address,t_bool)"
      }
    ],
    "types": {
      "t_address": {
        "encoding": "inplace",
        "label": "address",
        "numberOfBytes": "20"
      },
      "t_bool": {
        "encoding": "inplace",
        "label": "bool",
        "numberOfBytes": "1"
      },
      "t_contract(IOnChainAI)999": {
        "encoding": "inplace",
        "label": "contract IOnChainAI",
        "numberOfBytes": "20"
      },
      "t_mapping(t_address,t_bool)": {
        "encoding": "mapping",
        "key": "t_address",
        "label": "mapping(address => bool)",
        "numberOfBytes": "32",
        "value": "t_bool"
      },
      "t_mapping(t_address,t_mapping(t_address,t_uint256))": {
        "encoding": "mapping",
        "key": "t_address",
        "label": "mapping(address => mapping(address => uint256))",
        "numberOfBytes": "32",
        "value": "t_mapping(t_address,t_uint256)"
      },
      "t_mapping(t_address,t_uint256)": {
        "encoding": "mapping",
        "key": "t_address",
        "label": "mapping(address => uint256)",
        "numberOfBytes": "32",
        "value": "t_uint256"
      },
      "t_string_storage": {
        "encoding": "bytes",
        "label": "string",
        "numberOfBytes": "32"
      },
      "t_uint256": {
        "encoding": "inplace",
        "label": "uint256",
        "numberOfBytes": "32"
      }
    }
  }
}