{
  "address": "0xFC9822dA6786D20028B8abCD16361115a260711D",
  "abi": [
    {
      "inputs": [
        {
          "internalType": "address",
          "name": "onChainAIAddress",
          "type": "address"
        }
      ],
      "stateMutability": "payable",
      "type": "constructor"
    },
    {
      "inputs": [],
      "name": "ContractNotVerified",
      "type": "error"
    },
    {
      "inputs": [],
      "name": "InsufficientContractBalance",
      "type": "error"
    },
    {
      "anonymous": false,
      "inputs": [
        {
          "indexed": true,
          "internalType": "address",
          "name": "owner",
          "type": "address"
        },
        {
          "indexed": true,
          "internalType": "address",
          "name": "spender",
          "type": "address"
        },
        {
          "indexed": false,
          "internalType": "uint256",
          "name": "value",
          "type": "uint256"
        }
      ],
      "name": "Approval",
      "type": "event"
    },
    {
      "anonymous": false,
      "inputs": [
        {
          "indexed": true,
          "internalType": "address",
          "name": "contractAddress",
          "type": "address"
        },
        {
          "indexed": false,
          "internalType": "bytes32",
          "name": "verificationResult",
          "type": "bytes32"
        }
      ],
      "name": "ContractVerified",
      "type": "event"
    },
    {
      "anonymous": false,
      "inputs": [
        {
          "indexed": true,
          "internalType": "address",
          "name": "previousOwner",
          "type": "address"
        },
        {
          "indexed": true,
          "internalType": "address",
          "name": "newOwner",
          "type": "address"
        }
      ],
      "name": "OwnershipTransferred",
      "type": "event"
    },
    {
      "anonymous": false,
      "inputs": [
        {
          "indexed": true,
          "internalType": "address",
          "name": "from",
          "type": "address"
        },
        {
          "indexed": true,
          "internalType": "address",
          "name": "to",
          "type": "address"
        },
        {
          "indexed": false,
          "internalType": "uint256",
          "name": "value",
          "type": "uint256"
        }
      ],
      "name": "Transfer",
      "type": "event"
    },
    {
      "anonymous": false,
      "inputs": [
        {
          "indexed": false,
          "internalType": "address",
          "name": "contractAddress",
          "type": "address"
        },
        {
          "indexed": false,
          "internalType": "string",
          "name": "errorMessage",
          "type": "string"
        }
      ],
      "name": "VerificationRequestFailed",
      "type": "event"
    },
    {
      "anonymous": false,
      "inputs": [
        {
          "indexed": false,
          "internalType": "address",
          "name": "contractAddress",
          "type": "address"
        },
        {
          "indexed": false,
          "internalType": "bool",
          "name": "isSent",
          "type": "bool"
        }
      ],
      "name": "VerificationRequestSent",
      "type": "event"
    },
    {
      "inputs": [
        {
          "internalType": "address",
          "name": "owner",
          "type": "address"
        },
        {
          "internalType": "address",
          "name": "spender",
          "type": "address"
        }
      ],
      "name": "allowance",
      "outputs": [
        {
          "internalType": "uint256",
          "name": "",
          "type": "uint256"
        }
      ],
      "stateMutability": "view",
      "type": "function"
    },
    {
      "inputs": [
        {
          "internalType": "address",
          "name": "spender",
          "type": "address"
        },
        {
          "internalType": "uint256",
          "name": "amount",
          "type": "uint256"
        }
      ],
      "name": "approve",
      "outputs": [
        {
          "internalType": "bool",
          "name": "",
          "type": "bool"
        }
      ],
      "stateMutability": "nonpayable",
      "type": "function"
    },
    {
      "inputs": [
        {
          "internalType": "address",
          "name": "account",
          "type": "address"
        }
      ],
      "name": "balanceOf",
      "outputs": [
        {
          "internalType": "uint256",
          "name": "",
          "type": "uint256"
        }
      ],
      "stateMutability": "view",
      "type": "function"
    },
    {
      "inputs": [
        {
          "internalType": "uint256",
          "name": "amount",
          "type": "uint256"
        }
      ],
      "name": "burn",
      "outputs": [],
      "stateMutability": "nonpayable",
      "type": "function"
    },
    {
      "inputs": [
        {
          "internalType": "address",
          "name": "account",
          "type": "address"
        },
        {
          "internalType": "uint256",
          "name": "amount",
          "type": "uint256"
        }
      ],
      "name": "burnFrom",
      "outputs": [],
      "stateMutability": "nonpayable",
      "type": "function"
    },
    {
      "inputs": [],
      "name": "decimals",
      "outputs": [
        {
          "internalType": "uint8",
          "name": "",
          "type": "uint8"
        }
      ],
      "stateMutability": "view",
      "type": "function"
    },
    {
      "inputs": [
        {
          "internalType": "address",
          "name": "spender",
          "type": "address"
        },
        {
          "internalType": "uint256",
          "name": "subtractedValue",
          "type": "uint256"
        }
      ],
      "name": "decreaseAllowance",
      "outputs": [
        {
          "internalType": "bool",
          "name": "",
          "type": "bool"
        }
      ],
      "stateMutability": "nonpayable",
      "type": "function"
    },
    {
      "inputs": [
        {
          "internalType": "address",
          "name": "spender",
          "type": "address"
        },
        {
          "internalType": "uint256",
          "name": "addedValue",
          "type": "uint256"
        }
      ],
      "name": "increaseAllowance",
      "outputs": [
        {
          "internalType": "bool",
          "name": "",
          "type": "bool"
        }
      ],
      "stateMutability": "nonpayable",
      "type": "function"
    },
    {
      "inputs": [
        {
          "internalType": "address",
          "name": "",
          "type": "address"
        }
      ],
      "name": "isContractVerified",
      "outputs": [
        {
          "internalType": "bool",
          "name": "",
          "type": "bool"
        }
      ],
      "stateMutability": "view",
      "type": "function"
    },
    {
      "inputs": [],
      "name": "name",
      "outputs": [
        {
          "internalType": "string",
          "name": "",
          "type": "string"
        }
      ],
      "stateMutability": "view",
      "type": "function"
    },
    {
      "inputs": [],
      "name": "owner",
      "outputs": [
        {
          "internalType": "address",
          "name": "",
          "type": "address"
        }
      ],
      "stateMutability": "view",
      "type": "function"
    },
    {
      "inputs": [],
      "name": "renounceOwnership",
      "outputs": [],
      "stateMutability": "nonpayable",
      "type": "function"
    },
    {
      "inputs": [],
      "name": "symbol",
      "outputs": [
        {
          "internalType": "string",
          "name": "",
          "type": "string"
        }
      ],
      "stateMutability": "view",
      "type": "function"
    },
    {
      "inputs": [],
      "name": "totalSupply",
      "outputs": [
        {
          "internalType": "uint256",
          "name": "",
          "type": "uint256"
        }
      ],
      "stateMutability": "view",
      "type": "function"
    },
    {
      "inputs": [
        {
          "internalType": "address",
          "name": "to",
          "type": "address"
        },
        {
          "internalType": "uint256",
          "name": "amount",
          "type": "uint256"
        }
      ],
      "name": "transfer",
      "outputs": [
        {
          "internalType": "bool",
          "name": "",
          "type": "bool"
        }
      ],
      "stateMutability": "nonpayable",
      "type": "function"
    },
    {
      "inputs": [
        {
          "internalType": "address",
          "name": "from",
          "type": "address"
        },
        {
          "internalType": "address",
          "name": "to",
          "type": "address"
        },
        {
          "internalType": "uint256",
          "name": "amount",
          "type": "uint256"
        }
      ],
      "name": "transferFrom",
      "outputs": [
        {
          "internalType": "bool",
          "name": "",
          "type": "bool"
        }
      ],
      "stateMutability": "nonpayable",
      "type": "function"
    },
    {
      "inputs": [
        {
          "internalType": "address",
          "name": "newOwner",
          "type": "address"
        }
      ],
      "name": "transferOwnership",
      "outputs": [],
      "stateMutability": "nonpayable",
      "type": "function"
    },
    {
      "inputs": [
        {
          "internalType": "address",
          "name": "contractAddress",
          "type": "address"
        }
      ],
      "name": "verifyContract",
      "outputs": [],
      "stateMutability": "nonpayable",
      "type": "function"
    },
    {
      "inputs": [
        {
          "internalType": "address",
          "name": "receiver",
          "type": "address"
        }
      ],
      "name": "withdraw",
      "outputs": [],
      "stateMutability": "nonpayable",
      "type": "function"
    },
    {
      "stateMutability": "payable",
      "type": "receive"
    }
  ],
  "transactionHash": "0xd288e686d0e96f6452c3bae8e25c28e8b0879aab22547198546ab09ad7fe0a7e",
  "args": [
    "0x3749238Ec9dF652236c8e60292e7a73c8721D0C9"
  ],
  "numDeployments": 15,
  "solcInputHash": "84dd48691938296a74816515af53a9d8",
  "bytecode": "0x6080604052604051620018083803806200180883398101604081905262000026916200020b565b6040518060400160405280601181526020017029b1b0b690243ab73a32b9102a37b5b2b760791b8152506040518060400160405280600381526020016214d21560ea1b81525081600390816200007d9190620002e1565b5060046200008c8282620002e1565b505050620000a9620000a3620000ea60201b60201c565b620000ee565b6001600655620000c43369d3c21bcecceda100000062000140565b600780546001600160a01b0319166001600160a01b0392909216919091179055620003d5565b3390565b600580546001600160a01b038381166001600160a01b0319831681179093556040519116919082907f8be0079c531659141344cd1fd0a4f28419497f9722a3daafe3b4186f6b6457e090600090a35050565b6001600160a01b0382166200019b5760405162461bcd60e51b815260206004820152601f60248201527f45524332303a206d696e7420746f20746865207a65726f206164647265737300604482015260640160405180910390fd5b8060026000828254620001af9190620003ad565b90915550506001600160a01b038216600081815260208181526040808320805486019055518481527fddf252ad1be2c89b69c2b068fc378daa952ba7f163c4a11628f55a4df523b3ef910160405180910390a35050565b505050565b6000602082840312156200021e57600080fd5b81516001600160a01b03811681146200023657600080fd5b9392505050565b634e487b7160e01b600052604160045260246000fd5b600181811c908216806200026857607f821691505b6020821081036200028957634e487b7160e01b600052602260045260246000fd5b50919050565b601f8211156200020657600081815260208120601f850160051c81016020861015620002b85750805b601f850160051c820191505b81811015620002d957828155600101620002c4565b505050505050565b81516001600160401b03811115620002fd57620002fd6200023d565b62000315816200030e845462000253565b846200028f565b602080601f8311600181146200034d5760008415620003345750858301515b600019600386901b1c1916600185901b178555620002d9565b600085815260208120601f198616915b828110156200037e578886015182559484019460019091019084016200035d565b50858210156200039d5787850151600019600388901b60f8161c191681555b5050505050600190811b01905550565b80820180821115620003cf57634e487b7160e01b600052601160045260246000fd5b92915050565b61142380620003e56000396000f3fe6080604052600436106101185760003560e01c806370a08231116100a057806395d89b411161006457806395d89b411461031f578063a457c2d714610334578063a9059cbb14610354578063dd62ed3e14610374578063f2fde38b1461039457600080fd5b806370a082311461025c578063715018a61461029257806379cc6790146102a75780638da5cb5b146102c75780639514b035146102ef57600080fd5b8063313ce567116100e7578063313ce567146101be57806339509351146101da5780633d200b45146101fa57806342966c681461021c57806351cff8d91461023c57600080fd5b806306fdde0314610124578063095ea7b31461014f57806318160ddd1461017f57806323b872dd1461019e57600080fd5b3661011f57005b600080fd5b34801561013057600080fd5b506101396103b4565b60405161014691906110f8565b60405180910390f35b34801561015b57600080fd5b5061016f61016a366004611127565b610446565b6040519015158152602001610146565b34801561018b57600080fd5b506002545b604051908152602001610146565b3480156101aa57600080fd5b5061016f6101b9366004611151565b610492565b3480156101ca57600080fd5b5060405160128152602001610146565b3480156101e657600080fd5b5061016f6101f5366004611127565b6104b6565b34801561020657600080fd5b5061021a61021536600461118d565b6104e2565b005b34801561022857600080fd5b5061021a6102373660046111a8565b6106cb565b34801561024857600080fd5b5061021a61025736600461118d565b6106d5565b34801561026857600080fd5b5061019061027736600461118d565b6001600160a01b031660009081526020819052604090205490565b34801561029e57600080fd5b5061021a61077b565b3480156102b357600080fd5b5061021a6102c2366004611127565b61078f565b3480156102d357600080fd5b506005546040516001600160a01b039091168152602001610146565b3480156102fb57600080fd5b5061016f61030a36600461118d565b60086020526000908152604090205460ff1681565b34801561032b57600080fd5b506101396107a4565b34801561034057600080fd5b5061016f61034f366004611127565b6107b3565b34801561036057600080fd5b5061016f61036f366004611127565b61082e565b34801561038057600080fd5b5061019061038f3660046111c1565b61083c565b3480156103a057600080fd5b5061021a6103af36600461118d565b610867565b6060600380546103c3906111f4565b80601f01602080910402602001604051908101604052809291908181526020018280546103ef906111f4565b801561043c5780601f106104115761010080835404028352916020019161043c565b820191906000526020600020905b81548152906001019060200180831161041f57829003601f168201915b5050505050905090565b6001600160a01b03821660009081526008602052604081205460ff1661047f57604051630b252c3360e11b815260040160405180910390fd5b61048983836108dd565b90505b92915050565b6000336104a08582856108eb565b6104ab858585610965565b506001949350505050565b6000336104d88185856104c9838361083c565b6104d39190611244565b610b09565b5060019392505050565b6104ea610c2e565b66071afd498d00004710156105125760405163786e0a9960e01b815260040160405180910390fd5b6001600160a01b0381166000908152600860205260408120805460ff1916600117905561053e82610c87565b60075460405163b2adc1d960e01b81529192506001600160a01b03169063b2adc1d99066071afd498d0000906105789085906004016110f8565b60206040518083038185885af1935050505080156105b3575060408051601f3d908101601f191682019092526105b091810190611257565b60015b61064a576105bf611270565b806308c379a00361063e57506105d36112c7565b806105de5750610640565b6001600160a01b03831660009081526008602052604090819020805460ff19169055517f850ed01ba2a78b6233c52169ad19abc826d5d2d922a46d294e9ba2157ca06ff0906106309085908490611351565b60405180910390a1506106bd565b505b3d6000803e3d6000fd5b50604080516001600160a01b0384168152600160208201527f7b36ea8643296c13a299042bfdb043761a44ca12145b2a3ca57c706f14eeb165910160405180910390a16106bd6040518060400160405280600e81526020016d02932b8bab2b9ba1029b2b73a1d160951b81525083610e72565b506106c86001600655565b50565b6106c83382610eb7565b6106dd610fe1565b6000816001600160a01b03164760405160006040518083038185875af1925050503d806000811461072a576040519150601f19603f3d011682016040523d82523d6000602084013e61072f565b606091505b50509050806107775760405162461bcd60e51b815260206004820152600f60248201526e15da5d1a191c985dc819985a5b1959608a1b60448201526064015b60405180910390fd5b5050565b610783610fe1565b61078d600061103b565b565b61079a8233836108eb565b6107778282610eb7565b6060600480546103c3906111f4565b600033816107c1828661083c565b9050838110156108215760405162461bcd60e51b815260206004820152602560248201527f45524332303a2064656372656173656420616c6c6f77616e63652062656c6f77604482015264207a65726f60d81b606482015260840161076e565b6104ab8286868403610b09565b6000336104d8818585610965565b6001600160a01b03918216600090815260016020908152604080832093909416825291909152205490565b61086f610fe1565b6001600160a01b0381166108d45760405162461bcd60e51b815260206004820152602660248201527f4f776e61626c653a206e6577206f776e657220697320746865207a65726f206160448201526564647265737360d01b606482015260840161076e565b6106c88161103b565b6000336104d8818585610b09565b60006108f7848461083c565b9050600019811461095f57818110156109525760405162461bcd60e51b815260206004820152601d60248201527f45524332303a20696e73756666696369656e7420616c6c6f77616e6365000000604482015260640161076e565b61095f8484848403610b09565b50505050565b6001600160a01b0383166109c95760405162461bcd60e51b815260206004820152602560248201527f45524332303a207472616e736665722066726f6d20746865207a65726f206164604482015264647265737360d81b606482015260840161076e565b6001600160a01b038216610a2b5760405162461bcd60e51b815260206004820152602360248201527f45524332303a207472616e7366657220746f20746865207a65726f206164647260448201526265737360e81b606482015260840161076e565b6001600160a01b03831660009081526020819052604090205481811015610aa35760405162461bcd60e51b815260206004820152602660248201527f45524332303a207472616e7366657220616d6f756e7420657863656564732062604482015265616c616e636560d01b606482015260840161076e565b6001600160a01b03848116600081815260208181526040808320878703905593871680835291849020805487019055925185815290927fddf252ad1be2c89b69c2b068fc378daa952ba7f163c4a11628f55a4df523b3ef910160405180910390a361095f565b6001600160a01b038316610b6b5760405162461bcd60e51b8152602060048201526024808201527f45524332303a20617070726f76652066726f6d20746865207a65726f206164646044820152637265737360e01b606482015260840161076e565b6001600160a01b038216610bcc5760405162461bcd60e51b815260206004820152602260248201527f45524332303a20617070726f766520746f20746865207a65726f206164647265604482015261737360f01b606482015260840161076e565b6001600160a01b0383811660008181526001602090815260408083209487168084529482529182902085905590518481527f8c5be1e5ebec7d5bd14f71427d1e84f3dd0314c0f7b2291e5b200ac8c7c3b92591015b60405180910390a3505050565b600260065403610c805760405162461bcd60e51b815260206004820152601f60248201527f5265656e7472616e637947756172643a207265656e7472616e742063616c6c00604482015260640161076e565b6002600655565b604080518082018252601081526f181899199a1a9b1b9c1cb0b131b232b360811b60208201528151602a80825260608281019094526001600160a01b0385169291600091602082018180368337019050509050600360fc1b81600081518110610cf257610cf261137d565b60200101906001600160f81b031916908160001a905350600f60fb1b81600181518110610d2157610d2161137d565b60200101906001600160f81b031916908160001a90535060005b6014811015610e695782600485610d5384600c611244565b60208110610d6357610d6361137d565b1a60f81b6001600160f81b031916901c60f81c60ff1681518110610d8957610d8961137d565b01602001516001600160f81b03191682610da4836002611393565b610daf906002611244565b81518110610dbf57610dbf61137d565b60200101906001600160f81b031916908160001a9053508284610de383600c611244565b60208110610df357610df361137d565b825191901a600f16908110610e0a57610e0a61137d565b01602001516001600160f81b03191682610e25836002611393565b610e30906003611244565b81518110610e4057610e4061137d565b60200101906001600160f81b031916908160001a90535080610e61816113aa565b915050610d3b565b50949350505050565b6107778282604051602401610e889291906113c3565b60408051601f198184030181529190526020810180516001600160e01b031663319af33360e01b17905261108d565b6001600160a01b038216610f175760405162461bcd60e51b815260206004820152602160248201527f45524332303a206275726e2066726f6d20746865207a65726f206164647265736044820152607360f81b606482015260840161076e565b6001600160a01b03821660009081526020819052604090205481811015610f8b5760405162461bcd60e51b815260206004820152602260248201527f45524332303a206275726e20616d6f756e7420657863656564732062616c616e604482015261636560f01b606482015260840161076e565b6001600160a01b0383166000818152602081815260408083208686039055600280548790039055518581529192917fddf252ad1be2c89b69c2b068fc378daa952ba7f163c4a11628f55a4df523b3ef9101610c21565b6005546001600160a01b0316331461078d5760405162461bcd60e51b815260206004820181905260248201527f4f776e61626c653a2063616c6c6572206973206e6f7420746865206f776e6572604482015260640161076e565b600580546001600160a01b038381166001600160a01b0319831681179093556040519116919082907f8be0079c531659141344cd1fd0a4f28419497f9722a3daafe3b4186f6b6457e090600090a35050565b6106c88160006a636f6e736f6c652e6c6f679050600080835160208501845afa505050565b6000815180845260005b818110156110d8576020818501810151868301820152016110bc565b506000602082860101526020601f19601f83011685010191505092915050565b60208152600061048960208301846110b2565b80356001600160a01b038116811461112257600080fd5b919050565b6000806040838503121561113a57600080fd5b6111438361110b565b946020939093013593505050565b60008060006060848603121561116657600080fd5b61116f8461110b565b925061117d6020850161110b565b9150604084013590509250925092565b60006020828403121561119f57600080fd5b6104898261110b565b6000602082840312156111ba57600080fd5b5035919050565b600080604083850312156111d457600080fd5b6111dd8361110b565b91506111eb6020840161110b565b90509250929050565b600181811c9082168061120857607f821691505b60208210810361122857634e487b7160e01b600052602260045260246000fd5b50919050565b634e487b7160e01b600052601160045260246000fd5b8082018082111561048c5761048c61122e565b60006020828403121561126957600080fd5b5051919050565b600060033d11156112895760046000803e5060005160e01c5b90565b601f8201601f1916810167ffffffffffffffff811182821017156112c057634e487b7160e01b600052604160045260246000fd5b6040525050565b600060443d10156112d55790565b6040516003193d81016004833e81513d67ffffffffffffffff816024840111818411171561130557505050505090565b828501915081518181111561131d5750505050505090565b843d87010160208285010111156113375750505050505090565b6113466020828601018761128c565b509095945050505050565b6001600160a01b0383168152604060208201819052600090611375908301846110b2565b949350505050565b634e487b7160e01b600052603260045260246000fd5b808202811582820484141761048c5761048c61122e565b6000600182016113bc576113bc61122e565b5060010190565b6040815260006113d660408301856110b2565b905060018060a01b0383166020830152939250505056fea2646970667358221220a5453e831773583010a37af404d493fbb3f7822fd01acb4968ad215f217c1eff64736f6c63430008130033",
  "devdoc": {
    "details": "ERC20 token with burnable, ownable, and reentrancy guard features. Integrated with OnChainAI for contract verification.",
    "errors": {
      "ContractNotVerified()": [
        {
          "details": "Custom error when a contract is attempted to be used before verification"
        }
      ],
      "InsufficientContractBalance()": [
        {
          "details": "Custom error when the contract balance is insufficient for verification requests"
        }
      ]
    },
    "events": {
      "Approval(address,address,uint256)": {
        "details": "Emitted when the allowance of a `spender` for an `owner` is set by a call to {approve}. `value` is the new allowance."
      },
      "ContractVerified(address,bytes32)": {
        "params": {
          "contractAddress": "The address of the contract that was verified",
          "verificationResult": "The result of the contract verification"
        }
      },
      "Transfer(address,address,uint256)": {
        "details": "Emitted when `value` tokens are moved from one account (`from`) to another (`to`). Note that `value` may be zero."
      },
      "VerificationRequestFailed(address,string)": {
        "params": {
          "contractAddress": "The address of the contract for which the request failed",
          "errorMessage": "Error message describing why the request failed"
        }
      },
      "VerificationRequestSent(address,bool)": {
        "params": {
          "contractAddress": "The address of the contract to be verified",
          "isSent": "Boolean indicating if the request was successfully sent"
        }
      }
    },
    "kind": "dev",
    "methods": {
      "allowance(address,address)": {
        "details": "See {IERC20-allowance}."
      },
      "approve(address,uint256)": {
        "params": {
          "amount": "The number of tokens to approve for spending",
          "spender": "The address to which tokens are allowed to be spent"
        },
        "returns": {
          "_0": "A boolean indicating success or failure"
        }
      },
      "balanceOf(address)": {
        "details": "See {IERC20-balanceOf}."
      },
      "burn(uint256)": {
        "details": "Destroys `amount` tokens from the caller. See {ERC20-_burn}."
      },
      "burnFrom(address,uint256)": {
        "details": "Destroys `amount` tokens from `account`, deducting from the caller's allowance. See {ERC20-_burn} and {ERC20-allowance}. Requirements: - the caller must have allowance for ``accounts``'s tokens of at least `amount`."
      },
      "constructor": {
        "params": {
          "onChainAIAddress": "The address of the OnChainAI contract for performing contract verification"
        }
      },
      "decimals()": {
        "details": "Returns the number of decimals used to get its user representation. For example, if `decimals` equals `2`, a balance of `505` tokens should be displayed to a user as `5.05` (`505 / 10 ** 2`). Tokens usually opt for a value of 18, imitating the relationship between Ether and Wei. This is the value {ERC20} uses, unless this function is overridden; NOTE: This information is only used for _display_ purposes: it in no way affects any of the arithmetic of the contract, including {IERC20-balanceOf} and {IERC20-transfer}."
      },
      "decreaseAllowance(address,uint256)": {
        "details": "Atomically decreases the allowance granted to `spender` by the caller. This is an alternative to {approve} that can be used as a mitigation for problems described in {IERC20-approve}. Emits an {Approval} event indicating the updated allowance. Requirements: - `spender` cannot be the zero address. - `spender` must have allowance for the caller of at least `subtractedValue`."
      },
      "increaseAllowance(address,uint256)": {
        "details": "Atomically increases the allowance granted to `spender` by the caller. This is an alternative to {approve} that can be used as a mitigation for problems described in {IERC20-approve}. Emits an {Approval} event indicating the updated allowance. Requirements: - `spender` cannot be the zero address."
      },
      "name()": {
        "details": "Returns the name of the token."
      },
      "owner()": {
        "details": "Returns the address of the current owner."
      },
      "renounceOwnership()": {
        "details": "Leaves the contract without owner. It will not be possible to call `onlyOwner` functions anymore. Can only be called by the current owner. NOTE: Renouncing ownership will leave the contract without an owner, thereby removing any functionality that is only available to the owner."
      },
      "symbol()": {
        "details": "Returns the symbol of the token, usually a shorter version of the name."
      },
      "totalSupply()": {
        "details": "See {IERC20-totalSupply}."
      },
      "transfer(address,uint256)": {
        "details": "See {IERC20-transfer}. Requirements: - `to` cannot be the zero address. - the caller must have a balance of at least `amount`."
      },
      "transferFrom(address,address,uint256)": {
        "details": "See {IERC20-transferFrom}. Emits an {Approval} event indicating the updated allowance. This is not required by the EIP. See the note at the beginning of {ERC20}. NOTE: Does not update the allowance if the current allowance is the maximum `uint256`. Requirements: - `from` and `to` cannot be the zero address. - `from` must have a balance of at least `amount`. - the caller must have allowance for ``from``'s tokens of at least `amount`."
      },
      "transferOwnership(address)": {
        "details": "Transfers ownership of the contract to a new account (`newOwner`). Can only be called by the current owner."
      },
      "verifyContract(address)": {
        "params": {
          "contractAddress": "The address of the contract to verify"
        }
      },
      "withdraw(address)": {
        "params": {
          "receiver": "The address to send the Ether to"
        }
      }
    },
    "stateVariables": {
      "isContractVerified": {
        "details": "Mapping to track whether a contract has been verified or not"
      },
      "onChainAI": {
        "details": "Chainlink-based contract for AI-driven verification requests"
      }
    },
    "title": "ScamHunterToken",
    "version": 1
  },
  "userdoc": {
    "events": {
      "ContractVerified(address,bytes32)": {
        "notice": "Emitted when a contract has been verified successfully"
      },
      "VerificationRequestFailed(address,string)": {
        "notice": "Emitted when a verification request fails"
      },
      "VerificationRequestSent(address,bool)": {
        "notice": "Emitted when a request to verify a contract is sent"
      }
    },
    "kind": "user",
    "methods": {
      "approve(address,uint256)": {
        "notice": "Approves an allowance for a spender, only if the contract has been verified"
      },
      "constructor": {
        "notice": "Constructor to deploy the ScamHunterToken contract"
      },
      "verifyContract(address)": {
        "notice": "Verifies a given smart contract using OnChainAI"
      },
      "withdraw(address)": {
        "notice": "Allows the contract owner to withdraw the contract's Ether balance"
      }
    },
    "version": 1
  },
  "storageLayout": {
    "storage": [
      {
        "astId": 2449,
        "contract": "contracts/ScamHunterToken.sol:ScamHunterToken",
        "label": "_balances",
        "offset": 0,
        "slot": "0",
        "type": "t_mapping(t_address,t_uint256)"
      },
      {
        "astId": 2455,
        "contract": "contracts/ScamHunterToken.sol:ScamHunterToken",
        "label": "_allowances",
        "offset": 0,
        "slot": "1",
        "type": "t_mapping(t_address,t_mapping(t_address,t_uint256))"
      },
      {
        "astId": 2457,
        "contract": "contracts/ScamHunterToken.sol:ScamHunterToken",
        "label": "_totalSupply",
        "offset": 0,
        "slot": "2",
        "type": "t_uint256"
      },
      {
        "astId": 2459,
        "contract": "contracts/ScamHunterToken.sol:ScamHunterToken",
        "label": "_name",
        "offset": 0,
        "slot": "3",
        "type": "t_string_storage"
      },
      {
        "astId": 2461,
        "contract": "contracts/ScamHunterToken.sol:ScamHunterToken",
        "label": "_symbol",
        "offset": 0,
        "slot": "4",
        "type": "t_string_storage"
      },
      {
        "astId": 2274,
        "contract": "contracts/ScamHunterToken.sol:ScamHunterToken",
        "label": "_owner",
        "offset": 0,
        "slot": "5",
        "type": "t_address"
      },
      {
        "astId": 2390,
        "contract": "contracts/ScamHunterToken.sol:ScamHunterToken",
        "label": "_status",
        "offset": 0,
        "slot": "6",
        "type": "t_uint256"
      },
      {
        "astId": 3541,
        "contract": "contracts/ScamHunterToken.sol:ScamHunterToken",
        "label": "onChainAI",
        "offset": 0,
        "slot": "7",
        "type": "t_contract(IOnChainAI)3917"
      },
      {
        "astId": 3546,
        "contract": "contracts/ScamHunterToken.sol:ScamHunterToken",
        "label": "isContractVerified",
        "offset": 0,
        "slot": "8",
        "type": "t_mapping(t_address,t_bool)"
      }
    ],
    "types": {
      "t_address": {
        "encoding": "inplace",
        "label": "address",
        "numberOfBytes": "20"
      },
      "t_bool": {
        "encoding": "inplace",
        "label": "bool",
        "numberOfBytes": "1"
      },
      "t_contract(IOnChainAI)3917": {
        "encoding": "inplace",
        "label": "contract IOnChainAI",
        "numberOfBytes": "20"
      },
      "t_mapping(t_address,t_bool)": {
        "encoding": "mapping",
        "key": "t_address",
        "label": "mapping(address => bool)",
        "numberOfBytes": "32",
        "value": "t_bool"
      },
      "t_mapping(t_address,t_mapping(t_address,t_uint256))": {
        "encoding": "mapping",
        "key": "t_address",
        "label": "mapping(address => mapping(address => uint256))",
        "numberOfBytes": "32",
        "value": "t_mapping(t_address,t_uint256)"
      },
      "t_mapping(t_address,t_uint256)": {
        "encoding": "mapping",
        "key": "t_address",
        "label": "mapping(address => uint256)",
        "numberOfBytes": "32",
        "value": "t_uint256"
      },
      "t_string_storage": {
        "encoding": "bytes",
        "label": "string",
        "numberOfBytes": "32"
      },
      "t_uint256": {
        "encoding": "inplace",
        "label": "uint256",
        "numberOfBytes": "32"
      }
    }
  }
}