{
  "address": "0xf74E2C20Dc3f5d42B658F409dED0aF6Fb772cFca",
  "abi": [
    {
      "inputs": [
        {
          "internalType": "address",
          "name": "router",
          "type": "address"
        },
        {
          "internalType": "string",
          "name": "javascript_",
          "type": "string"
        },
        {
          "internalType": "uint64",
          "name": "subscriptionId_",
          "type": "uint64"
        },
        {
          "internalType": "uint32",
          "name": "gasLimit_",
          "type": "uint32"
        },
        {
          "internalType": "bytes32",
          "name": "donId_",
          "type": "bytes32"
        }
      ],
      "stateMutability": "nonpayable",
      "type": "constructor"
    },
    {
      "inputs": [],
      "name": "EmptyArgs",
      "type": "error"
    },
    {
      "inputs": [],
      "name": "EmptySource",
      "type": "error"
    },
    {
      "inputs": [],
      "name": "NoInlineSecrets",
      "type": "error"
    },
    {
      "inputs": [],
      "name": "OnlyRouterCanFulfill",
      "type": "error"
    },
    {
      "inputs": [
        {
          "internalType": "bytes32",
          "name": "requestId",
          "type": "bytes32"
        }
      ],
      "name": "UnexpectedRequestID",
      "type": "error"
    },
    {
      "anonymous": false,
      "inputs": [
        {
          "indexed": false,
          "internalType": "string",
          "name": "javascript",
          "type": "string"
        }
      ],
      "name": "Javascript",
      "type": "event"
    },
    {
      "anonymous": false,
      "inputs": [
        {
          "indexed": true,
          "internalType": "address",
          "name": "from",
          "type": "address"
        },
        {
          "indexed": true,
          "internalType": "address",
          "name": "to",
          "type": "address"
        }
      ],
      "name": "OwnershipTransferRequested",
      "type": "event"
    },
    {
      "anonymous": false,
      "inputs": [
        {
          "indexed": true,
          "internalType": "address",
          "name": "from",
          "type": "address"
        },
        {
          "indexed": true,
          "internalType": "address",
          "name": "to",
          "type": "address"
        }
      ],
      "name": "OwnershipTransferred",
      "type": "event"
    },
    {
      "anonymous": false,
      "inputs": [
        {
          "indexed": true,
          "internalType": "bytes32",
          "name": "requestId",
          "type": "bytes32"
        },
        {
          "indexed": false,
          "internalType": "string",
          "name": "request",
          "type": "string"
        }
      ],
      "name": "Request",
      "type": "event"
    },
    {
      "anonymous": false,
      "inputs": [
        {
          "indexed": true,
          "internalType": "bytes32",
          "name": "id",
          "type": "bytes32"
        }
      ],
      "name": "RequestFulfilled",
      "type": "event"
    },
    {
      "anonymous": false,
      "inputs": [
        {
          "indexed": true,
          "internalType": "bytes32",
          "name": "id",
          "type": "bytes32"
        }
      ],
      "name": "RequestSent",
      "type": "event"
    },
    {
      "anonymous": false,
      "inputs": [
        {
          "indexed": true,
          "internalType": "bytes32",
          "name": "requestId",
          "type": "bytes32"
        },
        {
          "indexed": false,
          "internalType": "string",
          "name": "response",
          "type": "string"
        },
        {
          "indexed": false,
          "internalType": "string",
          "name": "err",
          "type": "string"
        }
      ],
      "name": "Response",
      "type": "event"
    },
    {
      "inputs": [],
      "name": "acceptOwnership",
      "outputs": [],
      "stateMutability": "nonpayable",
      "type": "function"
    },
    {
      "inputs": [],
      "name": "donHostedSecretsVersion",
      "outputs": [
        {
          "internalType": "uint64",
          "name": "",
          "type": "uint64"
        }
      ],
      "stateMutability": "view",
      "type": "function"
    },
    {
      "inputs": [],
      "name": "donId",
      "outputs": [
        {
          "internalType": "bytes32",
          "name": "",
          "type": "bytes32"
        }
      ],
      "stateMutability": "view",
      "type": "function"
    },
    {
      "inputs": [],
      "name": "gasLimit",
      "outputs": [
        {
          "internalType": "uint32",
          "name": "",
          "type": "uint32"
        }
      ],
      "stateMutability": "view",
      "type": "function"
    },
    {
      "inputs": [
        {
          "internalType": "bytes32",
          "name": "requestId",
          "type": "bytes32"
        },
        {
          "internalType": "bytes",
          "name": "response",
          "type": "bytes"
        },
        {
          "internalType": "bytes",
          "name": "err",
          "type": "bytes"
        }
      ],
      "name": "handleOracleFulfillment",
      "outputs": [],
      "stateMutability": "nonpayable",
      "type": "function"
    },
    {
      "inputs": [],
      "name": "javascript",
      "outputs": [
        {
          "internalType": "string",
          "name": "",
          "type": "string"
        }
      ],
      "stateMutability": "view",
      "type": "function"
    },
    {
      "inputs": [],
      "name": "lastError",
      "outputs": [
        {
          "internalType": "string",
          "name": "",
          "type": "string"
        }
      ],
      "stateMutability": "view",
      "type": "function"
    },
    {
      "inputs": [],
      "name": "lastRequestId",
      "outputs": [
        {
          "internalType": "bytes32",
          "name": "",
          "type": "bytes32"
        }
      ],
      "stateMutability": "view",
      "type": "function"
    },
    {
      "inputs": [],
      "name": "lastResponse",
      "outputs": [
        {
          "internalType": "string",
          "name": "",
          "type": "string"
        }
      ],
      "stateMutability": "view",
      "type": "function"
    },
    {
      "inputs": [],
      "name": "lastUserPrompt",
      "outputs": [
        {
          "internalType": "string",
          "name": "",
          "type": "string"
        }
      ],
      "stateMutability": "view",
      "type": "function"
    },
    {
      "inputs": [],
      "name": "owner",
      "outputs": [
        {
          "internalType": "address",
          "name": "",
          "type": "address"
        }
      ],
      "stateMutability": "view",
      "type": "function"
    },
    {
      "inputs": [
        {
          "internalType": "string",
          "name": "userPrompt",
          "type": "string"
        }
      ],
      "name": "sendRequest",
      "outputs": [
        {
          "internalType": "bytes32",
          "name": "",
          "type": "bytes32"
        }
      ],
      "stateMutability": "payable",
      "type": "function"
    },
    {
      "inputs": [
        {
          "internalType": "uint64",
          "name": "donHostedSecretsVersion_",
          "type": "uint64"
        }
      ],
      "name": "setDonHostedSecretsVersion",
      "outputs": [],
      "stateMutability": "nonpayable",
      "type": "function"
    },
    {
      "inputs": [
        {
          "internalType": "bytes32",
          "name": "donId_",
          "type": "bytes32"
        }
      ],
      "name": "setDonID",
      "outputs": [],
      "stateMutability": "nonpayable",
      "type": "function"
    },
    {
      "inputs": [
        {
          "internalType": "uint32",
          "name": "gasLimit_",
          "type": "uint32"
        }
      ],
      "name": "setGasLimit",
      "outputs": [],
      "stateMutability": "nonpayable",
      "type": "function"
    },
    {
      "inputs": [
        {
          "internalType": "string",
          "name": "javascript_",
          "type": "string"
        }
      ],
      "name": "setJavascript",
      "outputs": [],
      "stateMutability": "nonpayable",
      "type": "function"
    },
    {
      "inputs": [
        {
          "internalType": "uint64",
          "name": "subscriptionId_",
          "type": "uint64"
        }
      ],
      "name": "setSubscriptionId",
      "outputs": [],
      "stateMutability": "nonpayable",
      "type": "function"
    },
    {
      "inputs": [],
      "name": "subscriptionId",
      "outputs": [
        {
          "internalType": "uint64",
          "name": "",
          "type": "uint64"
        }
      ],
      "stateMutability": "view",
      "type": "function"
    },
    {
      "inputs": [
        {
          "internalType": "address",
          "name": "to",
          "type": "address"
        }
      ],
      "name": "transferOwnership",
      "outputs": [],
      "stateMutability": "nonpayable",
      "type": "function"
    },
    {
      "inputs": [
        {
          "internalType": "address",
          "name": "receiver",
          "type": "address"
        }
      ],
      "name": "withdraw",
      "outputs": [],
      "stateMutability": "nonpayable",
      "type": "function"
    }
  ],
  "transactionHash": "0xd7839bc8010b75f624d9d75f7da1ca44736b94f445a6d29381168b5c56cd730c",
  "args": [
    "0xf9B8fc078197181C841c296C876945aaa425B278",
    "// Ensure that basescanAPIKey is set in your environment variables\nif (!secrets.basescanAPIKey) {\n  throw new Error(\"Need basescanAPIKey environment variable\");\n}\n\nlet verified = false;\n\n// Contract address to check\nconst contractAddress = args[0];\nif(contractAddress && contractAddress.trim() !== \"\") \n{\n  console.log(\"Contract Address is not defined\")\n}\n\n// API key for Block Explorer\nconst apiKey = secrets.basescanAPIKey; // Your Block Explorer API key\nif(apiKey && apiKey.trim() !== \"\") \n  {\n    console.log(\"Block Explorer API Key is not defined\")\n  }\n\ntry {\n  // HTTP request to get the contract source code from Block Explorer on Base Sepolia network\n  const basescanResponse = await Functions.makeHttpRequest({\n      url: `https://api-sepolia.basescan.org/api?module=contract&action=getsourcecode&address=${contractAddress}&apikey=${apiKey}`,\n  });\n\n  // Check if the HTTP request was successful\n  if (basescanResponse.error) {\n      console.log(`HTTP request failed: ${basescanResponse.error}`)\n      throw new Error(`HTTP request failed: ${basescanResponse.error}`);\n  }\n\n  // Check if data and result are defined in the response\n  const { result } = basescanResponse.data;\n  if (result && result.length > 0) {\n      const { SourceCode } = result[0];\n\n      // Determine if the contract is verified\n      if (SourceCode && SourceCode.trim() !== '') {\n          verified = true;\n      } else {\n          verified = false; \n      }\n  }\n} catch (error) {\n  console.error(\"Error during contract verification:\", error.message);\n}\n\n// Return the encoded string based on the verification status\nreturn Functions.encodeString(\n  verified ? \"This is a verified contract on Basescan\" : \"This is NOT a verified contract on Basescan\"\n);\n",
    177,
    300000,
    "0x66756e2d626173652d7365706f6c69612d310000000000000000000000000000"
  ],
  "numDeployments": 2,
  "solcInputHash": "67b6a75818a238fb10cf3886fd2cc6de",
  "bytecode": "0x60a06040523480156200001157600080fd5b5060405162003990380380620039908339818101604052810190620000379190620005c3565b33806000878073ffffffffffffffffffffffffffffffffffffffff1660808173ffffffffffffffffffffffffffffffffffffffff168152505050600073ffffffffffffffffffffffffffffffffffffffff168273ffffffffffffffffffffffffffffffffffffffff1603620000e3576040517f08c379a0000000000000000000000000000000000000000000000000000000008152600401620000da90620006cb565b60405180910390fd5b816000806101000a81548173ffffffffffffffffffffffffffffffffffffffff021916908373ffffffffffffffffffffffffffffffffffffffff160217905550600073ffffffffffffffffffffffffffffffffffffffff168173ffffffffffffffffffffffffffffffffffffffff16146200016a576200016981620001db60201b60201c565b5b50505083600290816200017e919062000938565b5082600760006101000a81548167ffffffffffffffff021916908367ffffffffffffffff16021790555081600760086101000a81548163ffffffff021916908363ffffffff16021790555080600881905550505050505062000a91565b3373ffffffffffffffffffffffffffffffffffffffff168173ffffffffffffffffffffffffffffffffffffffff16036200024c576040517f08c379a0000000000000000000000000000000000000000000000000000000008152600401620002439062000a6f565b60405180910390fd5b80600160006101000a81548173ffffffffffffffffffffffffffffffffffffffff021916908373ffffffffffffffffffffffffffffffffffffffff1602179055508073ffffffffffffffffffffffffffffffffffffffff1660008054906101000a900473ffffffffffffffffffffffffffffffffffffffff1673ffffffffffffffffffffffffffffffffffffffff167fed8889f560326eb138920d842192f0eb3dd22b4f139c87a2c57538e05bae127860405160405180910390a350565b6000604051905090565b600080fd5b600080fd5b600073ffffffffffffffffffffffffffffffffffffffff82169050919050565b60006200034b826200031e565b9050919050565b6200035d816200033e565b81146200036957600080fd5b50565b6000815190506200037d8162000352565b92915050565b600080fd5b600080fd5b6000601f19601f8301169050919050565b7f4e487b7100000000000000000000000000000000000000000000000000000000600052604160045260246000fd5b620003d8826200038d565b810181811067ffffffffffffffff82111715620003fa57620003f96200039e565b5b80604052505050565b60006200040f6200030a565b90506200041d8282620003cd565b919050565b600067ffffffffffffffff82111562000440576200043f6200039e565b5b6200044b826200038d565b9050602081019050919050565b60005b83811015620004785780820151818401526020810190506200045b565b60008484015250505050565b60006200049b620004958462000422565b62000403565b905082815260208101848484011115620004ba57620004b962000388565b5b620004c784828562000458565b509392505050565b600082601f830112620004e757620004e662000383565b5b8151620004f984826020860162000484565b91505092915050565b600067ffffffffffffffff82169050919050565b620005218162000502565b81146200052d57600080fd5b50565b600081519050620005418162000516565b92915050565b600063ffffffff82169050919050565b620005628162000547565b81146200056e57600080fd5b50565b600081519050620005828162000557565b92915050565b6000819050919050565b6200059d8162000588565b8114620005a957600080fd5b50565b600081519050620005bd8162000592565b92915050565b600080600080600060a08688031215620005e257620005e162000314565b5b6000620005f2888289016200036c565b955050602086015167ffffffffffffffff81111562000616576200061562000319565b5b6200062488828901620004cf565b9450506040620006378882890162000530565b93505060606200064a8882890162000571565b92505060806200065d88828901620005ac565b9150509295509295909350565b600082825260208201905092915050565b7f43616e6e6f7420736574206f776e657220746f207a65726f0000000000000000600082015250565b6000620006b36018836200066a565b9150620006c0826200067b565b602082019050919050565b60006020820190508181036000830152620006e681620006a4565b9050919050565b600081519050919050565b7f4e487b7100000000000000000000000000000000000000000000000000000000600052602260045260246000fd5b600060028204905060018216806200074057607f821691505b602082108103620007565762000755620006f8565b5b50919050565b60008190508160005260206000209050919050565b60006020601f8301049050919050565b600082821b905092915050565b600060088302620007c07fffffffffffffffffffffffffffffffffffffffffffffffffffffffffffffffff8262000781565b620007cc868362000781565b95508019841693508086168417925050509392505050565b6000819050919050565b6000819050919050565b600062000819620008136200080d84620007e4565b620007ee565b620007e4565b9050919050565b6000819050919050565b6200083583620007f8565b6200084d620008448262000820565b8484546200078e565b825550505050565b600090565b6200086462000855565b620008718184846200082a565b505050565b5b8181101562000899576200088d6000826200085a565b60018101905062000877565b5050565b601f821115620008e857620008b2816200075c565b620008bd8462000771565b81016020851015620008cd578190505b620008e5620008dc8562000771565b83018262000876565b50505b505050565b600082821c905092915050565b60006200090d60001984600802620008ed565b1980831691505092915050565b6000620009288383620008fa565b9150826002028217905092915050565b6200094382620006ed565b67ffffffffffffffff8111156200095f576200095e6200039e565b5b6200096b825462000727565b620009788282856200089d565b600060209050601f831160018114620009b057600084156200099b578287015190505b620009a785826200091a565b86555062000a17565b601f198416620009c0866200075c565b60005b82811015620009ea57848901518255600182019150602085019450602081019050620009c3565b8683101562000a0a578489015162000a06601f891682620008fa565b8355505b6001600288020188555050505b505050505050565b7f43616e6e6f74207472616e7366657220746f2073656c66000000000000000000600082015250565b600062000a576017836200066a565b915062000a648262000a1f565b602082019050919050565b6000602082019050818103600083015262000a8a8162000a48565b9050919050565b608051612edc62000ab46000396000818161047d01526114d90152612edc6000f3fe60806040526004361061011f5760003560e01c80638dbe7b9d116100a0578063ea7b4f7711610064578063ea7b4f7714610390578063f2fde38b146103b9578063f68016b7146103e2578063fc2a88c31461040d578063fdb742d9146104385761011f565b80638dbe7b9d146102b65780639f2f83c0146102e1578063b2adc1d91461030c578063cd6b5fef1461033c578063cfeaa3ec146103675761011f565b806362747e42116100e757806362747e42146101f557806363e47df8146102205780636806c8621461024b57806379ba5097146102745780638da5cb5b1461028b5761011f565b806309c1ba2e146101245780630ca761751461014f57806329f0de3f1461017857806351cff8d9146101a357806352d84c62146101cc575b600080fd5b34801561013057600080fd5b50610139610461565b6040516101469190611de7565b60405180910390f35b34801561015b57600080fd5b5061017660048036038101906101719190611f92565b61047b565b005b34801561018457600080fd5b5061018d61053d565b60405161019a919061209c565b60405180910390f35b3480156101af57600080fd5b506101ca60048036038101906101c5919061211c565b6105cb565b005b3480156101d857600080fd5b506101f360048036038101906101ee9190612185565b610683565b005b34801561020157600080fd5b5061020a6106af565b604051610217919061209c565b60405180910390f35b34801561022c57600080fd5b5061023561073d565b604051610242919061209c565b60405180910390f35b34801561025757600080fd5b50610272600480360381019061026d9190612253565b6107cb565b005b34801561028057600080fd5b5061028961081d565b005b34801561029757600080fd5b506102a06109b2565b6040516102ad91906122ab565b60405180910390f35b3480156102c257600080fd5b506102cb6109db565b6040516102d891906122d5565b60405180910390f35b3480156102ed57600080fd5b506102f66109e1565b604051610303919061209c565b60405180910390f35b61032660048036038101906103219190612253565b610a6f565b60405161033391906122d5565b60405180910390f35b34801561034857600080fd5b50610351610d54565b60405161035e9190611de7565b60405180910390f35b34801561037357600080fd5b5061038e600480360381019061038991906122f0565b610d6e565b005b34801561039c57600080fd5b506103b760048036038101906103b29190612349565b610d80565b005b3480156103c557600080fd5b506103e060048036038101906103db919061211c565b610db4565b005b3480156103ee57600080fd5b506103f7610dc8565b6040516104049190612385565b60405180910390f35b34801561041957600080fd5b50610422610dde565b60405161042f91906122d5565b60405180910390f35b34801561044457600080fd5b5061045f600480360381019061045a9190612349565b610de4565b005b600760009054906101000a900467ffffffffffffffff1681565b7f000000000000000000000000000000000000000000000000000000000000000073ffffffffffffffffffffffffffffffffffffffff163373ffffffffffffffffffffffffffffffffffffffff1614610500576040517fc6829f8300000000000000000000000000000000000000000000000000000000815260040160405180910390fd5b61050b838383610e18565b827f85e1543bf2f84fe80c6badbce3648c8539ad1df4d2b3d822938ca0538be727e660405160405180910390a2505050565b6005805461054a906123cf565b80601f0160208091040260200160405190810160405280929190818152602001828054610576906123cf565b80156105c35780601f10610598576101008083540402835291602001916105c3565b820191906000526020600020905b8154815290600101906020018083116105a657829003601f168201915b505050505081565b6105d3610ebf565b60008173ffffffffffffffffffffffffffffffffffffffff16476040516105f990612431565b60006040518083038185875af1925050503d8060008114610636576040519150601f19603f3d011682016040523d82523d6000602084013e61063b565b606091505b505090508061067f576040517f08c379a000000000000000000000000000000000000000000000000000000000815260040161067690612492565b60405180910390fd5b5050565b61068b610ebf565b80600760086101000a81548163ffffffff021916908363ffffffff16021790555050565b600480546106bc906123cf565b80601f01602080910402602001604051908101604052809291908181526020018280546106e8906123cf565b80156107355780601f1061070a57610100808354040283529160200191610735565b820191906000526020600020905b81548152906001019060200180831161071857829003601f168201915b505050505081565b6002805461074a906123cf565b80601f0160208091040260200160405190810160405280929190818152602001828054610776906123cf565b80156107c35780601f10610798576101008083540402835291602001916107c3565b820191906000526020600020905b8154815290600101906020018083116107a657829003601f168201915b505050505081565b6107d3610ebf565b80600290816107e29190612668565b507f19b57dbb939f96aaca7e28083ba30fa22465fd4c84b94a7c7d7b689137be687781604051610812919061209c565b60405180910390a150565b600160009054906101000a900473ffffffffffffffffffffffffffffffffffffffff1673ffffffffffffffffffffffffffffffffffffffff163373ffffffffffffffffffffffffffffffffffffffff16146108ad576040517f08c379a00000000000000000000000000000000000000000000000000000000081526004016108a490612786565b60405180910390fd5b60008060009054906101000a900473ffffffffffffffffffffffffffffffffffffffff169050336000806101000a81548173ffffffffffffffffffffffffffffffffffffffff021916908373ffffffffffffffffffffffffffffffffffffffff1602179055506000600160006101000a81548173ffffffffffffffffffffffffffffffffffffffff021916908373ffffffffffffffffffffffffffffffffffffffff1602179055503373ffffffffffffffffffffffffffffffffffffffff168173ffffffffffffffffffffffffffffffffffffffff167f8be0079c531659141344cd1fd0a4f28419497f9722a3daafe3b4186f6b6457e060405160405180910390a350565b60008060009054906101000a900473ffffffffffffffffffffffffffffffffffffffff16905090565b60085481565b600680546109ee906123cf565b80601f0160208091040260200160405190810160405280929190818152602001828054610a1a906123cf565b8015610a675780601f10610a3c57610100808354040283529160200191610a67565b820191906000526020600020905b815481529060010190602001808311610a4a57829003601f168201915b505050505081565b600066071afd498d00003414610aba576040517f08c379a0000000000000000000000000000000000000000000000000000000008152600401610ab1906127f2565b60405180910390fd5b6000600960009054906101000a900467ffffffffffffffff1667ffffffffffffffff1611610b1d576040517f08c379a0000000000000000000000000000000000000000000000000000000008152600401610b149061285e565b60405180910390fd5b8160069081610b2c9190612668565b5060006003819055506040518060200160405280600081525060049081610b539190612668565b506040518060200160405280600081525060059081610b729190612668565b50610b7b611d18565b610c1860028054610b8b906123cf565b80601f0160208091040260200160405190810160405280929190818152602001828054610bb7906123cf565b8015610c045780601f10610bd957610100808354040283529160200191610c04565b820191906000526020600020905b815481529060010190602001808311610be757829003601f168201915b505050505082610f4f90919063ffffffff16565b6000600167ffffffffffffffff811115610c3557610c34611e67565b5b604051908082528060200260200182016040528015610c6857816020015b6060815260200190600190039081610c535790505b5090508381600081518110610c8057610c7f61287e565b5b6020026020010181905250610c9e8183610f6090919063ffffffff16565b610cca6000600960009054906101000a900467ffffffffffffffff1684610fa89092919063ffffffff16565b610d08610cd6836110b8565b600760009054906101000a900467ffffffffffffffff16600760089054906101000a900463ffffffff166008546114d4565b6003819055506003547f58c4931f429cb18fea0238d66bdcec44991828642becdaed95b821ac2e59191d85604051610d40919061209c565b60405180910390a260035492505050919050565b600960009054906101000a900467ffffffffffffffff1681565b610d76610ebf565b8060088190555050565b610d88610ebf565b80600760006101000a81548167ffffffffffffffff021916908367ffffffffffffffff16021790555050565b610dbc610ebf565b610dc5816115b7565b50565b600760089054906101000a900463ffffffff1681565b60035481565b610dec610ebf565b80600960006101000a81548167ffffffffffffffff021916908367ffffffffffffffff16021790555050565b8260035414610e5e57826040517fd068bf5b000000000000000000000000000000000000000000000000000000008152600401610e5591906122d5565b60405180910390fd5b8160049081610e6d9190612668565b508060059081610e7d9190612668565b50827f54e825fb4d54663279ee30ed85028f773101cc86a17c9fbeecd0e0d1f771381160046005604051610eb2929190612931565b60405180910390a2505050565b60008054906101000a900473ffffffffffffffffffffffffffffffffffffffff1673ffffffffffffffffffffffffffffffffffffffff163373ffffffffffffffffffffffffffffffffffffffff1614610f4d576040517f08c379a0000000000000000000000000000000000000000000000000000000008152600401610f44906129b4565b60405180910390fd5b565b610f5c82600080846116e3565b5050565b6000815103610f9b576040517ffe936cb700000000000000000000000000000000000000000000000000000000815260040160405180910390fd5b808260a001819052505050565b6000610fb561010061178d565b9050610fff6040518060400160405280600681526020017f736c6f7449440000000000000000000000000000000000000000000000000000815250826117b490919063ffffffff16565b6110158360ff16826117dd90919063ffffffff16565b61105d6040518060400160405280600781526020017f76657273696f6e00000000000000000000000000000000000000000000000000815250826117b490919063ffffffff16565b61107082826117dd90919063ffffffff16565b600284602001906002811115611089576110886129d4565b5b9081600281111561109d5761109c6129d4565b5b81525050806000015160000151846080018190525050505050565b606060006110c761010061178d565b90506111116040518060400160405280600c81526020017f636f64654c6f636174696f6e0000000000000000000000000000000000000000815250826117b490919063ffffffff16565b61113a8360000151600281111561112b5761112a6129d4565b5b826117ed90919063ffffffff16565b6111826040518060400160405280600881526020017f6c616e6775616765000000000000000000000000000000000000000000000000815250826117b490919063ffffffff16565b6111ab8360400151600081111561119c5761119b6129d4565b5b826117ed90919063ffffffff16565b6111f36040518060400160405280600681526020017f736f757263650000000000000000000000000000000000000000000000000000815250826117b490919063ffffffff16565b61120a8360600151826117b490919063ffffffff16565b60008360a001515111156112c6576112606040518060400160405280600481526020017f6172677300000000000000000000000000000000000000000000000000000000815250826117b490919063ffffffff16565b6112698161183d565b60005b8360a00151518110156112bb576112aa8460a0015182815181106112935761129261287e565b5b6020026020010151836117b490919063ffffffff16565b806112b490612a32565b905061126c565b506112c581611865565b5b6000836080015151111561140757600060028111156112e8576112e76129d4565b5b836020015160028111156112ff576112fe6129d4565b5b03611336576040517fa80d31f700000000000000000000000000000000000000000000000000000000815260040160405180910390fd5b61137e6040518060400160405280600f81526020017f736563726574734c6f636174696f6e0000000000000000000000000000000000815250826117b490919063ffffffff16565b6113a783602001516002811115611398576113976129d4565b5b826117ed90919063ffffffff16565b6113ef6040518060400160405280600781526020017f7365637265747300000000000000000000000000000000000000000000000000815250826117b490919063ffffffff16565b61140683608001518261188d90919063ffffffff16565b5b60008360c001515111156114c35761145d6040518060400160405280600981526020017f6279746573417267730000000000000000000000000000000000000000000000815250826117b490919063ffffffff16565b6114668161183d565b60005b8360c00151518110156114b8576114a78460c0015182815181106114905761148f61287e565b5b60200260200101518361188d90919063ffffffff16565b806114b190612a32565b9050611469565b506114c281611865565b5b806000015160000151915050919050565b6000807f000000000000000000000000000000000000000000000000000000000000000073ffffffffffffffffffffffffffffffffffffffff1663461d27628688600188886040518663ffffffff1660e01b8152600401611539959493929190612aec565b6020604051808303816000875af1158015611558573d6000803e3d6000fd5b505050506040513d601f19601f8201168201806040525081019061157c9190612b5b565b9050807f1131472297a800fee664d1d89cfa8f7676ff07189ecc53f80bbb5f4969099db860405160405180910390a280915050949350505050565b3373ffffffffffffffffffffffffffffffffffffffff168173ffffffffffffffffffffffffffffffffffffffff1603611625576040517f08c379a000000000000000000000000000000000000000000000000000000000815260040161161c90612bd4565b60405180910390fd5b80600160006101000a81548173ffffffffffffffffffffffffffffffffffffffff021916908373ffffffffffffffffffffffffffffffffffffffff1602179055508073ffffffffffffffffffffffffffffffffffffffff1660008054906101000a900473ffffffffffffffffffffffffffffffffffffffff1673ffffffffffffffffffffffffffffffffffffffff167fed8889f560326eb138920d842192f0eb3dd22b4f139c87a2c57538e05bae127860405160405180910390a350565b600081510361171e576040517f22ce3edd00000000000000000000000000000000000000000000000000000000815260040160405180910390fd5b8284600001906002811115611736576117356129d4565b5b9081600281111561174a576117496129d4565b5b815250508184604001906000811115611766576117656129d4565b5b9081600081111561177a576117796129d4565b5b8152505080846060018190525050505050565b611795611d8a565b6117a38160000151836118b6565b506000816020018181525050919050565b6117c1826003835161192f565b6117d8818360000151611ad890919063ffffffff16565b505050565b6117e98260008361192f565b5050565b61180f60026005600660ff16901b178360000151611af490919063ffffffff16565b5061183982826040516020016118259190612c03565b60405160208183030381529060405261188d565b5050565b611848816004611b5e565b60018160200181815161185b9190612c1e565b9150818152505050565b611870816007611b5e565b6001816020018181516118839190612c52565b9150818152505050565b61189a826002835161192f565b6118b1818360000151611ad890919063ffffffff16565b505050565b6118be611daa565b60006020836118cd9190612cb5565b146118f9576020826118df9190612cb5565b60206118eb9190612c52565b826118f69190612c1e565b91505b81836020018181525050604051808452600081528281016020018181101561192057600080fd5b80604052505082905092915050565b60178167ffffffffffffffff161161196a576119648160058460ff16901b60ff16178460000151611af490919063ffffffff16565b50611ad3565b60ff8167ffffffffffffffff16116119c85761199d601860058460ff16901b178460000151611af490919063ffffffff16565b506119c28167ffffffffffffffff1660018560000151611b849092919063ffffffff16565b50611ad2565b61ffff8167ffffffffffffffff1611611a27576119fc601960058460ff16901b178460000151611af490919063ffffffff16565b50611a218167ffffffffffffffff1660028560000151611b849092919063ffffffff16565b50611ad1565b63ffffffff8167ffffffffffffffff1611611a8857611a5d601a60058460ff16901b178460000151611af490919063ffffffff16565b50611a828167ffffffffffffffff1660048560000151611b849092919063ffffffff16565b50611ad0565b611aa9601b60058460ff16901b178460000151611af490919063ffffffff16565b50611ace8167ffffffffffffffff1660088560000151611b849092919063ffffffff16565b505b5b5b5b505050565b611ae0611daa565b611aec83838451611c11565b905092915050565b611afc611daa565b600083600001515190506000600182611b159190612c1e565b905084602001518210611b3957611b3885600283611b339190612ce6565b611cf4565b5b84516020838201018581538151831115611b51578282525b5050849250505092915050565b611b7f601f60058360ff16901b178360000151611af490919063ffffffff16565b505050565b611b8c611daa565b6000846000015151905060008184611ba49190612c1e565b90508560200151811115611bc957611bc886600283611bc39190612ce6565b611cf4565b5b6000600185610100611bdb9190612e5b565b611be59190612c52565b905086518281018783198251161781528151841115611c02578382525b50508693505050509392505050565b611c19611daa565b8251821115611c2757600080fd5b6000846000015151905060008382611c3f9190612c1e565b90508560200151811115611c6457611c6386600283611c5e9190612ce6565b611cf4565b5b60008087518051856020830101935080851115611c7f578482525b60208901925050505b60208610611cc65780518252602082611ca19190612c1e565b9150602081611cb09190612c1e565b9050602086611cbf9190612c52565b9550611c88565b60006001876020036101000a0390508019825116818451168181178552505050879450505050509392505050565b600082600001519050611d0783836118b6565b50611d128382611ad8565b50505050565b6040518060e0016040528060006002811115611d3757611d366129d4565b5b815260200160006002811115611d5057611d4f6129d4565b5b8152602001600080811115611d6857611d676129d4565b5b8152602001606081526020016060815260200160608152602001606081525090565b6040518060400160405280611d9d611daa565b8152602001600081525090565b604051806040016040528060608152602001600081525090565b600067ffffffffffffffff82169050919050565b611de181611dc4565b82525050565b6000602082019050611dfc6000830184611dd8565b92915050565b6000604051905090565b600080fd5b600080fd5b6000819050919050565b611e2981611e16565b8114611e3457600080fd5b50565b600081359050611e4681611e20565b92915050565b600080fd5b600080fd5b6000601f19601f8301169050919050565b7f4e487b7100000000000000000000000000000000000000000000000000000000600052604160045260246000fd5b611e9f82611e56565b810181811067ffffffffffffffff82111715611ebe57611ebd611e67565b5b80604052505050565b6000611ed1611e02565b9050611edd8282611e96565b919050565b600067ffffffffffffffff821115611efd57611efc611e67565b5b611f0682611e56565b9050602081019050919050565b82818337600083830152505050565b6000611f35611f3084611ee2565b611ec7565b905082815260208101848484011115611f5157611f50611e51565b5b611f5c848285611f13565b509392505050565b600082601f830112611f7957611f78611e4c565b5b8135611f89848260208601611f22565b91505092915050565b600080600060608486031215611fab57611faa611e0c565b5b6000611fb986828701611e37565b935050602084013567ffffffffffffffff811115611fda57611fd9611e11565b5b611fe686828701611f64565b925050604084013567ffffffffffffffff81111561200757612006611e11565b5b61201386828701611f64565b9150509250925092565b600081519050919050565b600082825260208201905092915050565b60005b8381101561205757808201518184015260208101905061203c565b60008484015250505050565b600061206e8261201d565b6120788185612028565b9350612088818560208601612039565b61209181611e56565b840191505092915050565b600060208201905081810360008301526120b68184612063565b905092915050565b600073ffffffffffffffffffffffffffffffffffffffff82169050919050565b60006120e9826120be565b9050919050565b6120f9816120de565b811461210457600080fd5b50565b600081359050612116816120f0565b92915050565b60006020828403121561213257612131611e0c565b5b600061214084828501612107565b91505092915050565b600063ffffffff82169050919050565b61216281612149565b811461216d57600080fd5b50565b60008135905061217f81612159565b92915050565b60006020828403121561219b5761219a611e0c565b5b60006121a984828501612170565b91505092915050565b600067ffffffffffffffff8211156121cd576121cc611e67565b5b6121d682611e56565b9050602081019050919050565b60006121f66121f1846121b2565b611ec7565b90508281526020810184848401111561221257612211611e51565b5b61221d848285611f13565b509392505050565b600082601f83011261223a57612239611e4c565b5b813561224a8482602086016121e3565b91505092915050565b60006020828403121561226957612268611e0c565b5b600082013567ffffffffffffffff81111561228757612286611e11565b5b61229384828501612225565b91505092915050565b6122a5816120de565b82525050565b60006020820190506122c0600083018461229c565b92915050565b6122cf81611e16565b82525050565b60006020820190506122ea60008301846122c6565b92915050565b60006020828403121561230657612305611e0c565b5b600061231484828501611e37565b91505092915050565b61232681611dc4565b811461233157600080fd5b50565b6000813590506123438161231d565b92915050565b60006020828403121561235f5761235e611e0c565b5b600061236d84828501612334565b91505092915050565b61237f81612149565b82525050565b600060208201905061239a6000830184612376565b92915050565b7f4e487b7100000000000000000000000000000000000000000000000000000000600052602260045260246000fd5b600060028204905060018216806123e757607f821691505b6020821081036123fa576123f96123a0565b5b50919050565b600081905092915050565b50565b600061241b600083612400565b91506124268261240b565b600082019050919050565b600061243c8261240e565b9150819050919050565b7f5769746864726177206661696c65640000000000000000000000000000000000600082015250565b600061247c600f83612028565b915061248782612446565b602082019050919050565b600060208201905081810360008301526124ab8161246f565b9050919050565b60008190508160005260206000209050919050565b60006020601f8301049050919050565b600082821b905092915050565b6000600883026125147fffffffffffffffffffffffffffffffffffffffffffffffffffffffffffffffff826124d7565b61251e86836124d7565b95508019841693508086168417925050509392505050565b6000819050919050565b6000819050919050565b600061256561256061255b84612536565b612540565b612536565b9050919050565b6000819050919050565b61257f8361254a565b61259361258b8261256c565b8484546124e4565b825550505050565b600090565b6125a861259b565b6125b3818484612576565b505050565b5b818110156125d7576125cc6000826125a0565b6001810190506125b9565b5050565b601f82111561261c576125ed816124b2565b6125f6846124c7565b81016020851015612605578190505b612619612611856124c7565b8301826125b8565b50505b505050565b600082821c905092915050565b600061263f60001984600802612621565b1980831691505092915050565b6000612658838361262e565b9150826002028217905092915050565b6126718261201d565b67ffffffffffffffff81111561268a57612689611e67565b5b61269482546123cf565b61269f8282856125db565b600060209050601f8311600181146126d257600084156126c0578287015190505b6126ca858261264c565b865550612732565b601f1984166126e0866124b2565b60005b82811015612708578489015182556001820191506020850194506020810190506126e3565b868310156127255784890151612721601f89168261262e565b8355505b6001600288020188555050505b505050505050565b7f4d7573742062652070726f706f736564206f776e657200000000000000000000600082015250565b6000612770601683612028565b915061277b8261273a565b602082019050919050565b6000602082019050818103600083015261279f81612763565b9050919050565b7f5265717565737420726571756972657320302e30303220657468657200000000600082015250565b60006127dc601c83612028565b91506127e7826127a6565b602082019050919050565b6000602082019050818103600083015261280b816127cf565b9050919050565b7f53656372657473206e6f742075706c6f61646564000000000000000000000000600082015250565b6000612848601483612028565b915061285382612812565b602082019050919050565b600060208201905081810360008301526128778161283b565b9050919050565b7f4e487b7100000000000000000000000000000000000000000000000000000000600052603260045260246000fd5b600081546128ba816123cf565b6128c48186612028565b945060018216600081146128df57600181146128f557612928565b60ff198316865281151560200286019350612928565b6128fe856124b2565b60005b8381101561292057815481890152600182019150602081019050612901565b808801955050505b50505092915050565b6000604082019050818103600083015261294b81856128ad565b9050818103602083015261295f81846128ad565b90509392505050565b7f4f6e6c792063616c6c61626c65206279206f776e657200000000000000000000600082015250565b600061299e601683612028565b91506129a982612968565b602082019050919050565b600060208201905081810360008301526129cd81612991565b9050919050565b7f4e487b7100000000000000000000000000000000000000000000000000000000600052602160045260246000fd5b7f4e487b7100000000000000000000000000000000000000000000000000000000600052601160045260246000fd5b6000612a3d82612536565b91507fffffffffffffffffffffffffffffffffffffffffffffffffffffffffffffffff8203612a6f57612a6e612a03565b5b600182019050919050565b600081519050919050565b600082825260208201905092915050565b6000612aa182612a7a565b612aab8185612a85565b9350612abb818560208601612039565b612ac481611e56565b840191505092915050565b600061ffff82169050919050565b612ae681612acf565b82525050565b600060a082019050612b016000830188611dd8565b8181036020830152612b138187612a96565b9050612b226040830186612add565b612b2f6060830185612376565b612b3c60808301846122c6565b9695505050505050565b600081519050612b5581611e20565b92915050565b600060208284031215612b7157612b70611e0c565b5b6000612b7f84828501612b46565b91505092915050565b7f43616e6e6f74207472616e7366657220746f2073656c66000000000000000000600082015250565b6000612bbe601783612028565b9150612bc982612b88565b602082019050919050565b60006020820190508181036000830152612bed81612bb1565b9050919050565b612bfd81612536565b82525050565b6000602082019050612c186000830184612bf4565b92915050565b6000612c2982612536565b9150612c3483612536565b9250828201905080821115612c4c57612c4b612a03565b5b92915050565b6000612c5d82612536565b9150612c6883612536565b9250828203905081811115612c8057612c7f612a03565b5b92915050565b7f4e487b7100000000000000000000000000000000000000000000000000000000600052601260045260246000fd5b6000612cc082612536565b9150612ccb83612536565b925082612cdb57612cda612c86565b5b828206905092915050565b6000612cf182612536565b9150612cfc83612536565b9250828202612d0a81612536565b91508282048414831517612d2157612d20612a03565b5b5092915050565b60008160011c9050919050565b6000808291508390505b6001851115612d7f57808604811115612d5b57612d5a612a03565b5b6001851615612d6a5780820291505b8081029050612d7885612d28565b9450612d3f565b94509492505050565b600082612d985760019050612e54565b81612da65760009050612e54565b8160018114612dbc5760028114612dc657612df5565b6001915050612e54565b60ff841115612dd857612dd7612a03565b5b8360020a915084821115612def57612dee612a03565b5b50612e54565b5060208310610133831016604e8410600b8410161715612e2a5782820a905083811115612e2557612e24612a03565b5b612e54565b612e378484846001612d35565b92509050818404811115612e4e57612e4d612a03565b5b81810290505b9392505050565b6000612e6682612536565b9150612e7183612536565b9250612e9e7fffffffffffffffffffffffffffffffffffffffffffffffffffffffffffffffff8484612d88565b90509291505056fea2646970667358221220ad0a670397924a0a8365db3956d946c2f37ecf6fcd92d3f6fb4e835c478e921464736f6c63430008130033",
  "devdoc": {
    "kind": "dev",
    "methods": {
      "handleOracleFulfillment(bytes32,bytes,bytes)": {
        "details": "Either response or error parameter will be set, but never both.",
        "params": {
          "err": "Aggregated error either from the request's source code or from the execution pipeline.",
          "requestId": "The requestId returned by FunctionsClient.sendRequest().",
          "response": "Aggregated response from the request's source code."
        }
      }
    },
    "version": 1
  },
  "userdoc": {
    "kind": "user",
    "methods": {
      "acceptOwnership()": {
        "notice": "Allows an ownership transfer to be completed by the recipient."
      },
      "handleOracleFulfillment(bytes32,bytes,bytes)": {
        "notice": "Chainlink Functions response handler called by the Functions Router during fullilment from the designated transmitter node in an OCR round."
      },
      "owner()": {
        "notice": "Get the current owner"
      },
      "transferOwnership(address)": {
        "notice": "Allows an owner to begin transferring ownership to a new address."
      }
    },
    "version": 1
  },
  "storageLayout": {
    "storage": [
      {
        "astId": 816,
        "contract": "contracts/VerificationCheck.sol:VerificationCheck",
        "label": "s_owner",
        "offset": 0,
        "slot": "0",
        "type": "t_address"
      },
      {
        "astId": 818,
        "contract": "contracts/VerificationCheck.sol:VerificationCheck",
        "label": "s_pendingOwner",
        "offset": 0,
        "slot": "1",
        "type": "t_address"
      },
      {
        "astId": 2284,
        "contract": "contracts/VerificationCheck.sol:VerificationCheck",
        "label": "javascript",
        "offset": 0,
        "slot": "2",
        "type": "t_string_storage"
      },
      {
        "astId": 2286,
        "contract": "contracts/VerificationCheck.sol:VerificationCheck",
        "label": "lastRequestId",
        "offset": 0,
        "slot": "3",
        "type": "t_bytes32"
      },
      {
        "astId": 2288,
        "contract": "contracts/VerificationCheck.sol:VerificationCheck",
        "label": "lastResponse",
        "offset": 0,
        "slot": "4",
        "type": "t_string_storage"
      },
      {
        "astId": 2290,
        "contract": "contracts/VerificationCheck.sol:VerificationCheck",
        "label": "lastError",
        "offset": 0,
        "slot": "5",
        "type": "t_string_storage"
      },
      {
        "astId": 2292,
        "contract": "contracts/VerificationCheck.sol:VerificationCheck",
        "label": "lastUserPrompt",
        "offset": 0,
        "slot": "6",
        "type": "t_string_storage"
      },
      {
        "astId": 2294,
        "contract": "contracts/VerificationCheck.sol:VerificationCheck",
        "label": "subscriptionId",
        "offset": 0,
        "slot": "7",
        "type": "t_uint64"
      },
      {
        "astId": 2296,
        "contract": "contracts/VerificationCheck.sol:VerificationCheck",
        "label": "gasLimit",
        "offset": 8,
        "slot": "7",
        "type": "t_uint32"
      },
      {
        "astId": 2298,
        "contract": "contracts/VerificationCheck.sol:VerificationCheck",
        "label": "donId",
        "offset": 0,
        "slot": "8",
        "type": "t_bytes32"
      },
      {
        "astId": 2300,
        "contract": "contracts/VerificationCheck.sol:VerificationCheck",
        "label": "donHostedSecretsVersion",
        "offset": 0,
        "slot": "9",
        "type": "t_uint64"
      }
    ],
    "types": {
      "t_address": {
        "encoding": "inplace",
        "label": "address",
        "numberOfBytes": "20"
      },
      "t_bytes32": {
        "encoding": "inplace",
        "label": "bytes32",
        "numberOfBytes": "32"
      },
      "t_string_storage": {
        "encoding": "bytes",
        "label": "string",
        "numberOfBytes": "32"
      },
      "t_uint32": {
        "encoding": "inplace",
        "label": "uint32",
        "numberOfBytes": "4"
      },
      "t_uint64": {
        "encoding": "inplace",
        "label": "uint64",
        "numberOfBytes": "8"
      }
    }
  }
}